:100000004BC00000CBC30000D3C30000DBC3000023
:10001000F9C300005EC000005CC0000002C4000024
:1000200021C4000056C0000054C0000052C00000AF
:1000300050C000004EC000004CC000004AC000008C
:1000400048C0000046C0000044C0000042C000009C
:1000500040C000003EC000003CC000003AC00000AC
:1000600038C0000036C0000034C0000032C00000BC
:1000700030C0000006C400002CC000002AC00000F0
:1000800028C0000026C0000024C0000022C00000DC
:1000900020C000001EC0000011241FBECFEFD0E220
:1000A000DEBFCDBF11E0A0E0B1E0E0ECFBE000E09E
:1000B0000BBF02C007900D92A830B107D9F722E01C
:1000C000A8E0B1E001C01D92A63BB207E1F7A2D1C2
:1000D00075C596CF1092800008951092B0000895D3
:1000E000AC01E1EBF0E09081936090831092B2005C
:1000F000B899B89A20E030E005C0B89BFECFB89A16
:100100002F5F3F4F241735071CF4B89BF6CFF7CF6E
:10011000E1EBF0E08081887F808308951092900069
:1001200008958F929F92AF92BF92CF92DF92EF92FB
:10013000FF920F931F93CF93DF937B015A01DA0154
:10014000ED91FC91181619062CF44C01CC24C394A3
:10015000D12C0EC0EC01992324F4CC27DD27C81B39
:10016000D90B4E01C92ECC0CCC080C2C000CDD0890
:10017000B0E18B16910440F4940136952795022F37
:100180003FE0532F521B02C008E057E0EC0DFD1D6D
:10019000E430F10539F0EF3FCFEFFC0729F4E3E05D
:1001A000F0E002C0E0E0F0E0A1EBB0E02C912360D1
:1001B0002C931092B200B899B89ADF01AA0FBB1F16
:1001C000A050BF4F2C9122B9D2E08D169104F0F1CE
:1001D0004FE0A2E0B0E010E00F5F1F4F94012A1B38
:1001E0003B0B0217130720F4541730F4415007C09B
:1001F0004F3020F44F5F03C0452F01C04FE0EC0D9E
:10020000FD1DE430F10539F0EF3F2FEFF20729F43F
:10021000E3E0F0E002C0E0E0F0E0642F70E020E016
:1002200030E005C0B89B03C0B89A2F5F3F4F261738
:100230003707C1F79F01220F331F20503F4FE901BD
:10024000288122B911968A169B0640F6A1EBB0E0F0
:100250002C91287F2C9310920C0110920B01D50148
:10026000ED93FC93E70128813981F901E81BF90B33
:10027000CF0168EC70E07BD499838883DF91CF91C4
:100280001F910F91FF90EF90DF90CF90BF90AF90B4
:100290009F908F900895EF92FF920F931F93CF93AB
:1002A000DF938C017B0112B8C0E0D0E010C0FE01EA
:1002B000EE0FFF1FE050FF4F808182B98EE190E08A
:1002C0000FDF2196C430D10511F4C0E0D0E063996E
:1002D000EECFC430D105A9F1CF3F8FEFD80741F160
:1002E000FE01EE0FFF1FE050FF4F808182B98EE1CB
:1002F00090E0F6DE2196C430D10539F0CF3FEFEF24
:10030000DE0729F4C3E0D0E002C0C0E0D0E0FE0187
:10031000EE0FFF1FE050FF4F808182B98EE190E029
:10032000DFDEF701D183C083F8011182108212C091
:100330008091060182B98EE190E0D2DEC0E0D0E08B
:10034000E6CF8091000182B98EE190E0C9DEC1E084
:10035000D0E0DDCFDF91CF911F910F91FF90EF9013
:100360000895BC0184B5836884BD85B5836085BD6F
:10037000072E000C880B990B0BD323E333E343E2E6
:1003800050E46AD3D7D267BD85B1807F85B908951F
:100390008DB38C6C8DBBE9E6F0E08081806B80834F
:1003A000EAE6F0E08081806E80830895EAE7F0E07D
:1003B00080818D688083ECE7F0E0808181648083B8
:1003C0008081817E80830895262F30E0409108014E
:1003D000437050E04217530781F045B1407F45B963
:1003E00045B12095309523703327220F331F220FFC
:1003F000331F242B25B960930801BC01990F880B8A
:10040000990BC6D223E333E343E250E425D392D2DF
:1004100067BD0895CF93DF9300D000D0CDB7DEB78E
:10042000E1E6F0E080E8808310821A8219821C8263
:100430001B82F89488E290E094DFAADFB7DF4ADEFF
:100440004CDE6CDE8FEF81B984B987B980EF8AB951
:100450001DB810BA789410921A02109219021092D4
:100460008E0110928D011092B3021092B20210927E
:1004700093011092920110920A01109209011092B8
:100480008F011092B4021092910110922B021092DF
:100490000C0110920B018AEA88B980ED97E020DE0A
:1004A0008FE088B980ED97E01BDEBE016D5F7F4F66
:1004B000CE010196F0DE62E088E290E085DF512C0B
:1004C00001E910E0AA24A394B12C0F2EF4E9CF2E59
:1004D000D12CF02D442443940F2EF2E38F2E912C37
:1004E000F02D0F2EF4E66F2E712CF02D0F2EF6E965
:1004F000EF2EF12CF02D80918F01882329F15110DE
:100500000DC0F801808181608083F6011182108224
:10051000C09B03C0C09A542C01C0542CC09B14C073
:1005200010928F01F8018081887F8083E091B20270
:10053000F091B3023197EF73FF27EE0FFF1FEA56DA
:10054000FE4FB182A082512C80919101882309F441
:10055000B3C010929101109295011092940188E01D
:1005600090E0E0911602F0911702EE0FFF1FE55E9A
:10057000FD4F408151812091940130919501240FCC
:10058000351F3093950120939401209116023091EC
:1005900017022F5F3F4F30931702209316022091CE
:1005A00016023091170227703327309317022093D9
:1005B00016020197B1F6809194019091950196955C
:1005C00087959695879596958795909395018093B5
:1005D0009401E0918D01F0918E01EE0FFF1FEA561C
:1005E000FE4F80819181E0918D01F0918E01EE0F9F
:1005F000FF1FEA56FE4F1182108220919401309124
:1006000095012C32314058F4E0918D01F0918E012A
:10061000EE0FFF1FE35FFE4FF182E0823BC02091AF
:100620009401309195012438334058F4E0918D01C4
:10063000F0918E01EE0FFF1FE35FFE4F91828082EB
:1006400029C020919401309195012B3B334058F4FF
:10065000E0918D01F0918E01EE0FFF1FE35FFE4FE1
:100660007182608217C081110BC0E0918D01F09101
:100670008E01EE0FFF1FE35FFE4F118210820AC052
:10068000E0918D01F0918E01EE0FFF1FE35FFE4FB1
:100690009182808280918D0190918E01019690933C
:1006A0008E0180938D018091090190910A0101973B
:1006B00090930A01809309018091B4028823B1F1DB
:1006C000E0919201F0919301EE0FFF1FE35FFE4F67
:1006D0002081318189819A81821B930BE1F025B1C0
:1006E000207F25B99C01992324F422273327281B36
:1006F000390B253631053CF099231CF488539F4F64
:1007000002C0885C9109AE014D5F5F4FBE016F5F13
:100710007F4F07DD2A9A8091920190919301019673
:1007200090939301809392011092B40280910901F9
:1007300090910A011816190644F080918D0190914C
:100740008E019093B3028093B2028091B202909195
:10075000B3028F7399279093B3028093B202809172
:100760008D0190918E018F73992790938E018093C4
:100770008D018091190290911A028F73992790939D
:100780001A028093190280919201909193018F73C4
:1007900099279093930180939201ADCE1F920F926F
:1007A0000FB60F9211240F900FBE0F901F90189547
:1007B0001F920F920FB60F9211240F900FBE0F9041
:1007C0001F9018951F920F920FB60F9211248F93BE
:1007D0009F938091B2029091B30201969093B302DD
:1007E0008093B2028091090190910A010196909341
:1007F0000A01809309019F918F910F900FBE0F9076
:100800001F9018951F920F920FB60F9211248F937D
:1008100081E080938F018F910F900FBE0F901F90FA
:1008200018951F920F920FB60F9211240BB60F92CC
:100830008F939F93EF93FF938FEF9FEF9093B1026E
:100840008093B002EAE7F0E0808180648083FF91CA
:10085000EF919F918F910F900BBE0F900FBE0F9055
:100860001F9018951F920F920FB60F9211248F931D
:1008700081E08093B4028F910F900FBE0F901F9074
:1008800018951F920F920FB60F9211240BB60F926C
:100890002F933F938F939F93EF93FF932091780033
:1008A000309179008091B0029091B10228173907F8
:1008B00048F580917800909179009093B1028093EF
:1008C000B002E0911602F09117028091B00290916F
:1008D000B102EE0FFF1FE55EFD4F91838083809193
:1008E00016029091170201969093170280931602B8
:1008F00080911602909117028770992790931702A2
:1009000080931602649B06C0EAE7F0E08081806471
:10091000808303C081E080939101FF91EF919F91CB
:100920008F913F912F910F900BBE0F900FBE0F90A4
:100930001F90189570D088F09F5790F0B92F992785
:10094000B751A0F0D1F0660F771F881F991F1AF0DA
:10095000BA95C9F712C0B13081F077D0B1E00895EF
:1009600074C0672F782F8827B85F39F0B93FCCF370
:10097000869577956795B395D9F73EF490958095D0
:10098000709561957F4F8F4F9F4F0895E89409C0F0
:1009900097FB3EF490958095709561957F4F8F4FB2
:1009A0009F4F9923A9F0F92F96E9BB279395F695C8
:1009B000879577956795B795F111F8CFFAF4BB0F46
:1009C00011F460FF1BC06F5F7F4F8F4F9F4F16C0AA
:1009D000882311F096E911C0772321F09EE8872F34
:1009E000762F05C0662371F096E8862F70E060E0F0
:1009F0002AF09A95660F771F881FDAF7880F969569
:100A0000879597F9089557FD9058440F551F59F051
:100A10005F3F71F04795880F97FB991F61F09F3FEB
:100A200079F087950895121613061406551FF2CF14
:100A30004695F1DF08C0161617061806991FF1CF64
:100A400086957105610508940895E894BB2766278B
:100A50007727CB0197F908950BD078C069D028F09B
:100A60006ED018F0952309F05AC05FC01124EECF64
:100A7000CADFA0F3959FD1F3950F50E0551F629FF9
:100A8000F001729FBB27F00DB11D639FAA27F00DE7
:100A9000B11DAA1F649F6627B00DA11D661F829F0E
:100AA0002227B00DA11D621F739FB00DA11D621FF3
:100AB000839FA00D611D221F749F3327A00D611D10
:100AC000231F849F600D211D822F762F6A2F1124F2
:100AD0009F5750408AF0E1F088234AF0EE0FFF1F45
:100AE000BB1F661F771F881F91505040A9F79E3F7C
:100AF000510570F014C0AACF5F3FECF3983EDCF3D1
:100B0000869577956795B795F795E7959F5FC1F7B8
:100B1000FE2B880F911D9695879597F9089597F963
:100B20009F6780E870E060E008959FEF80EC089593
:100B300000240A94161617061806090608950024BC
:100B40000A9412161306140605060895092E039436
:100B5000000C11F4882352F0BB0F40F4BF2B11F4AA
:100B600060FF04C06F5F7F4F8F4F9F4F089597FBCB
:100B7000072E16F4009406D077FD08D00BD007FCA2
:100B800005D03EF4909581959F4F0895709561959D
:100B90007F4F0895AA1BBB1B51E107C0AA1FBB1FB3
:100BA000A617B70710F0A61BB70B881F991F5A95F9
:100BB000A9F780959095BC01CD010895F894FFCFD9
:080BC00036002E002D00350067
:00000001FF
