S01D0000534F5254494E475F50524F4A4543545F46494E414C2E73726563A2
S11300004BC0000078C3000080C3000088C3000018
S11300109DC30000AAC30000D4C300003AC400007A
S113002042C4000056C0000054C0000052C000008A
S113003050C000004EC000004CC000004AC0000088
S113004048C0000046C0000044C0000042C0000098
S113005040C000003EC000003CC000003AC00000A8
S113006038C0000036C0000034C0000032C00000B8
S113007030C00000B5C300002CC000002AC000003E
S113008028C0000026C0000024C0000022C00000D8
S113009020C000001EC0000011241FBECFEFD0E21C
S11300A0DEBFCDBF11E0A0E0B1E0E6E4FBE000E09C
S11300B00BBF02C007900D92A830B107D9F721E019
S11300C0A8E0B1E001C01D92AE32B207E1F7B0D1B1
S11300D038C596CF1092800008951092B00008950C
S11300E0AC01E1EBF0E09081936090831092B20058
S11300F0B899B89A20E030E005C0B89BFECFB89A12
S11301002F5F3F4F241735071CF4B89BF6CFF7CF6A
S1130110E1EBF0E08081887F808308951092900065
S113012008958F929F92AF92BF92CF92DF92EF92F7
S1130130FF920F931F93CF93DF937B015A01DA0150
S1130140ED91FC91181619062CF44C01CC24C3949F
S1130150D12C0EC0EC01992324F4CC27DD27C81B35
S1130160D90B4E01C92ECC0CCC080C2C000CDD088C
S1130170B0E18B16910440F4940136952795022F33
S11301803FE0532F521B02C008E057E0EC0DFD1D69
S1130190E430F10539F0EF3FCFEFFC0729F4E3E059
S11301A0F0E002C0E0E0F0E0A1E8B0E02C91287FAC
S11301B02C93A1EBB0E02C9123602C931092B2000D
S11301C0B899B89ADF01AA0FBB1FA050BF4F2C915A
S11301D022B9D2E08D169104F0F14FE0A2E0B0E034
S11301E010E00F5F1F4F94012A1B3B0B02171307EC
S11301F020F4541730F4415007C04F3020F44F5FBF
S113020003C0452F01C04FE0EC0DFD1DE430F105A6
S113021039F0EF3F2FEFF20729F4E3E0F0E002C0FA
S1130220E0E0F0E0642F70E020E030E005C0B89B2F
S113023003C0B89A2F5F3F4F26173707C1F79F01B6
S1130240220F331F20503F4FE901288122B9119614
S11302508A169B0640F6A1EBB0E02C91287F2C93E4
S1130260A1E8B0E02C9121602C93109285001092AB
S11302708400B099B09A10920A0110920901D50134
S1130280ED93FC93E70128813981820F931F68EC79
S113029070E030D499838883DF91CF911F910F91BF
S11302A0FF90EF90DF90CF90BF90AF909F908F9092
S11302B00895EF92FF920F931F93CF93DF938C01D6
S11302C07B0112B8C0E0D0E010C0FE01EE0FFF1FAA
S11302D0E050FF4F808182B98EE190E001DF2196EA
S11302E0C430D10511F4C0E0D0E06399EECFC4303E
S11302F0D105A9F1CF3F8FEFD80741F1FE01EE0FF1
S1130300FF1FE050FF4F808182B98EE190E0E8DE6C
S11303102196C430D10539F0CF3FEFEFDE0729F441
S1130320C3E0D0E002C0C0E0D0E0FE01EE0FFF1F4A
S1130330E050FF4F808182B98EE190E0D1DEF70179
S1130340D183C083F8011182108212C0809106010A
S113035082B98EE190E0C4DEC0E0D0E0E6CF8091C7
S1130360000182B98EE190E0BBDEC1E0D0E0DDCFD8
S1130370DF91CF911F910F91FF90EF900895BC01F1
S113038084B5836884BD85B5836085BD072E000C64
S1130390880B990BC0D223E333E343E250E41FD329
S11303A08CD267BD85B1807F85B908958DB38C6388
S11303B08DBBE9E6F0E08081806B8083EAE6F0E0C3
S11303C080818B6080830895EAE7F0E080818D6806
S11303D08083ECE7F0E08081816480838081817E8A
S11303E080830895262F30E040910801437050E047
S11303F04217530781F045B1407F45B945B1209577
S1130400309523703327220F331F220F331F242BE1
S113041025B960930801BC01990F880B990B7BD215
S113042023E333E343E250E4DAD247D267BD0895CD
S1130430CF93DF93CDB7DEB7C458D1090FB6F89484
S1130440DEBF0FBECDBFE1E6F0E080E8808310821E
S11304501A8219821C821B8280E4FE013596DF0118
S1130460282F1D922A95E9F7E05CFF4FDF011D92CA
S11304708A95E9F7F89488E290E081DF97DFA4DFBA
S113048029DE2BDE4BDE8FEF81B984B987B980EF8B
S11304908AB91DB810BA78941092150110921401FB
S11304A010920C0110920B0110922C0110922B014E
S11304B0109211011092100110920D0110922D0151
S11304C010920F011092260110920A011092090154
S11304D0BE016D5F7F4FCE010196EBDE61E088E2E5
S11304E090E080DF11E00F2EF4E6EF2EF02D0F2EBA
S11304F0F2E3FF2EF02D06E980910D01882381F0AF
S113050010920D01E0912B01F0912C013197EF73C2
S1130510FF2725E030E02C0F3D1FE20FF31F10836F
S113052080912D018823B9F110922D01E0911001E1
S1130530F091110185E490E08C0F9D1FE80FF91FE5
S1130540208189819A81821B9109E1F025B1207F64
S113055025B99C01992324F422273327281B390B1E
S1130560253631053CF099231CF488539F4F02C073
S1130570885C9109AE014D5F5F4FBE016F5F7F4F95
S1130580D0DD2B9A809110019091110101969093E6
S113059011018093100180910F01882309F482C016
S11305A010920F0128E030E040E050E0E0911201A9
S11305B0F0911301EE0FFF1FEA5EFE4F80819181DF
S11305C0480F591F80911201909113010196909345
S11305D0130180931201809112019091130187708D
S11305E09927909313018093120121503109F1F658
S11305F0569547955695479556954795E0910B0125
S1130600F0910C01A5E0B0E0AC0FBD1FEA0FFB1F99
S11306108081E0910B01F0910C01EA0FFB1F108225
S11306208823D9F0483C510560F4E0910B01F09126
S11306300C0125E430E02C0F3D1FE20FF31F008373
S113064026C0E0910B01F0910C0185E490E08C0F41
S11306509D1FE80FF91FF0821AC0463B534060F417
S1130660E0910B01F0910C01A5E4B0E0AC0FBD1FCB
S1130670EA0FFB1FE0820BC0E0910B01F0910C012B
S113068025E430E02C0F3D1FE20FF31F1082809110
S11306900B0190910C01019690930C0180930B0136
S11306A010930E0180912B0190912C018F73992747
S11306B090932C0180932B0180910B0190910C015C
S11306C08F73992790930C0180930B0180911401EF
S11306D0909115018F7399279093150180931401BC
S11306E080911001909111018F73992790931101BA
S11306F08093100101CF1F920F920FB60F92112415
S11307000F900FBE0F901F9018951F920F920FB667
S11307100F9211240F900FBE0F901F9018951F92E7
S11307200F920FB60F9211248F939F9380912B01F8
S113073090912C01019690932C0180932B019F9111
S11307408F910F900FBE0F901F9018951F920F92CC
S11307500FB60F9211248F9381E080930D018F9136
S11307600F900FBE0F901F9018951F920F920FB607
S11307700F9211240BB60F928F939F93EF93FF93D5
S11307808FEF9FEF90932A0180932901EAE7F0E02D
S11307908081806480838091140190911501019679
S11307A0909315018093140110920E01FF91EF9123
S11307B09F918F910F900BBE0F900FBE0F901F90C3
S11307C018951F920F920FB60F9211248F9381E008
S11307D080932D018F910F900FBE0F901F9018954D
S11307E01F920F920FB60F9211240BB60F922F93F4
S11307F03F938F939F93EF93FF93209178003091D1
S113080079008091290190912A012817390748F528
S1130810809178009091790090932A018093290126
S1130820E0911201F09113018091290190912A0124
S1130830EE0FFF1FEA5EFE4F9183808380911201C9
S1130840909113010196909313018093120180916A
S1130850120190911301877099279093130180934B
S113086012014A9B06C0EAE7F0E08081806480833D
S113087003C081E080930F01FF91EF919F918F91CD
S11308803F912F910F900BBE0F900FBE0F901F90B2
S113089018951F920F920FB60F9211240F900FBE4E
S11308A00F901F9018951F920F920FB60F9211245C
S11308B00F900FBE0F901F90189570D088F09F571F
S11308C090F0B92F9927B751A0F0D1F0660F771F98
S11308D0881F991F1AF0BA95C9F712C0B13081F078
S11308E077D0B1E0089574C0672F782F8827B85F58
S11308F039F0B93FCCF3869577956795B395D9F7D9
S11309003EF490958095709561957F4F8F4F9F4FE2
S11309100895E89409C097FB3EF4909580957095EE
S113092061957F4F8F4F9F4F9923A9F0F92F96E937
S1130930BB279395F695879577956795B795F111AC
S1130940F8CFFAF4BB0F11F460FF1BC06F5F7F4F49
S11309508F4F9F4F16C0882311F096E911C077235B
S113096021F09EE8872F762F05C0662371F096E864
S1130970862F70E060E02AF09A95660F771F881F33
S1130980DAF7880F9695879597F9089557FD90584B
S1130990440F551F59F05F3F71F04795880F97FB3F
S11309A0991F61F09F3F79F08795089512161306F9
S11309B01406551FF2CF4695F1DF08C01616170628
S11309C01806991FF1CF869571056105089408955D
S11309D0E894BB2766277727CB0197F908950BD0B6
S11309E078C069D028F06ED018F0952309F05AC069
S11309F05FC01124EECFCADFA0F3959FD1F3950F0A
S1130A0050E0551F629FF001729FBB27F00DB11D8E
S1130A10639FAA27F00DB11DAA1F649F6627B00D1E
S1130A20A11D661F829F2227B00DA11D621F739F07
S1130A30B00DA11D621F839FA00D611D221F749F15
S1130A403327A00D611D231F849F600D211D822F5C
S1130A50762F6A2F11249F5750408AF0E1F08823A3
S1130A604AF0EE0FFF1FBB1F661F771F881F9150B0
S1130A705040A9F79E3F510570F014C0AACF5F3FC4
S1130A80ECF3983EDCF3869577956795B795F795E3
S1130A90E7959F5FC1F7FE2B880F911D969587956B
S1130AA097F9089597F99F6780E870E060E00895EA
S1130AB09FEF80EC089500240A9416161706180672
S1130AC00906089500240A9412161306140605064E
S1130AD00895092E0394000C11F4882352F0BB0FDF
S1130AE040F4BF2B11F460FF04C06F5F7F4F8F4F42
S1130AF09F4F089597FB072E16F4009406D077FDB8
S1130B0008D00BD007FC05D03EF4909581959F4FFB
S1130B100895709561957F4F0895AA1BBB1B51E101
S1130B2007C0AA1FBB1FA617B70710F0A61BB70B59
S1130B30881F991F5A95A9F780959095BC01CD01FE
S1090B400895F894FFCFB4
S10B0B4636002E002D003500DD
S9030000FC
