S01D0000534F5254494E475F50524F4A4543545F46494E414C2E73726563A2
S1130000C9C200000C94120B0C941C0B0C94260B0C
S11300100C944A0B0C94E20B0C94F10B0C94590BBA
S11300200C947A0B0C94000CD3C20000D1C20000D3
S1130030CFC20000CDC20000CBC20000C9C2000084
S1130040C7C20000C5C20000C3C20000C1C2000094
S1130050BFC20000BDC20000BBC20000B9C20000A4
S1130060B7C20000B5C20000B3C20000B1C20000B4
S1130070AFC200000C94890BABC20000A9C20000FF
S1130080A7C20000A5C20000A3C20000A1C20000D4
S11300909FC200009DC2000000000000003E5B4FB4
S11300A05B3E3E6B4F6B3E1C3E7C3E1C183C7E3CD4
S11300B0181C577D571C1C5E7F5E1C00183C1800E2
S11300C0FFE7C3E7FF0018241800FFE7DBE7FF3072
S11300D0483A060E2629792926407F050507407FE0
S11300E005253F5A3CE73C5A7F3E1C1C08081C1C53
S11300F03E7F14227F22145F5F005F5F06097F0149
S11301007F006689956A606060606094A2FFA29433
S113011008047E040810207E201008082A1C080801
S11301201C2A08081E101010100C1E0C1E0C30384F
S11301303E3830060E3E0E06000000000000005F50
S113014000000007000700147F147F14242A7F2A6C
S1130150122313086462364956205000080703002E
S1130160001C2241000041221C002A1C7F1C2A087A
S1130170083E0808008070300008080808080000DD
S113018060600020100804023E5149453E00427F51
S1130190400072494949462141494D331814127FA0
S11301A01027454545393C4A494931412111090740
S11301B03649494936464949291E000014000000C1
S11301C04034000000081422411414141414004193
S11301D022140802015909063E415D594E7C121150
S11301E0127C7F494949363E414141227F41414188
S11301F03E7F494949417F090909013E4141517303
S11302007F0808087F00417F41002040413F017F73
S1130210081422417F404040407F021C027F7F043B
S113022008107F3E4141413E7F090909063E415184
S1130230215E7F09192946264949493203017F0174
S1130240033F4040403F1F2040201F3F4038403F75
S1130250631408146303047804036159494D43008B
S11302607F4141410204081020004141417F0402C2
S11302700102044040404040000307080020545459
S113028078407F2844443838444444283844442837
S11302907F385454541800087E090218A4A49C788A
S11302A07F0804047800447D40002040403D007FE6
S11302B01028440000417F40007C047804787C08C6
S11302C00404783844444438FC182424181824249A
S11302D018FC7C08040408485454542404043F447F
S11302E0243C4040207C1C2040201C3C4030403CAE
S11302F044281028444C9090907C4464544C44000E
S11303000836410000007700000041360800020171
S11303100204023C2623263C1EA1A161123A40405D
S1130320207A3854545559215555794122545478DA
S113033042215554784020545579400C1E52721273
S113034039555555593954545459395554545800FC
S113035000457C410002457D420001457C407D1200
S113036011127DF0282528F07C5455450020545462
S11303707C547C0A097F4932494949323A4444440D
S11303803A324A4848303A4141217A3A4240207848
S1130390009DA0A07D3D4242423D3D4040403D3C49
S11303A024FF2424487E4943662B2FFC2F2BFF096E
S11303B029F620C0887E0903205454794100004462
S11303C07D413048484A32384040227A007A0A0A4D
S11303D0727D0D19317D2629292F282629292926C0
S11303E030484D4020380808080808080808382F05
S11303F010C8ACBA2F102834FA00007B000008148F
S11304002A142222142A1408AA005500AAAA55AABA
S113041055AA000000FF00101010FF00141414FF70
S1130420001010FF00FF1010F010F0141414FC0062
S11304301414F700FF0000FF00FF1414F404FC146C
S11304401417101F10101F101F1414141F00101065
S113045010F0000000001F101010101F10101010DA
S1130460F010000000FF101010101010101010FFFA
S113047010000000FF140000FF00FF00001F101711
S11304800000FC04F414141710171414F404F400FA
S113049000FF00F714141414141414F700F71414C0
S11304A014171410101F101F141414F4141010F047
S11304B010F000001F101F0000001F14000000FCBB
S11304C0140000F010F01010FF10FF141414FF14A7
S11304D01010101F00000000F010FFFFFFFFFFF0DE
S11304E0F0F0F0F0FFFFFF0000000000FFFF0F0F2F
S11304F00F0F0F3844443844FC4A4A4A347E0202FF
S11305000606027E027E0263554941633844443C38
S113051004407E201E2006027E020299A5E7A599CA
S11305201C2A492A1C4C7201724C304A4D4D303001
S113053048784830BC625A463D3E494949007E01EC
S113054001017E2A2A2A2A2A44445F444440514A0B
S1130550444040444A51400000FF0103E080FF0052
S11305600008086B6B083612362436060F090F068E
S1130570000018180000001010003040FF010100B6
S11305801F01011E00191D1712003C3C3C3C0000D9
S11305900000000011241FBECFEFD0E2DEBFCDBFAC
S11305A011E0A0E0B1E0E2EAF1E200E00BBF02C03A
S11305B007900D92A238B107D9F727E0A2E8B1E07D
S11305C001C01D92AC32B207E1F7D9D40C94CF101C
S11305D017CD8823D4F06034C0F4962F9695969561
S11305E09695E82FF0E080E8989FE00DF11D112426
S11305F0EE57FE4F677081E090E002C0880F991FAC
S11306006A95E2F79081892B808308951F93CF9395
S1130610DF93442351F0C62F182FD42FD60F6C2FFD
S1130620812FD7DFCF5FCD13FACFDF91CF911F9109
S113063008950F931F93CF93DF93442379F0162FDC
S1130640C82FD42FD80F01E0060F612F8C2FC1DFE4
S1130650602F8C2FBEDFCF5FCD13F7CFDF91CF910B
S11306601F910F910895EF92FF920F931F93CF93D1
S1130670DF93D82FC62F042FE22E142F181B1F5FD1
S1130680F22EF61A412FD5DF412F6E2D8D2FD1DF9B
S11306904F2D6C2F8D2FBADF4F2D6C2F802FB6DF8F
S11306A0DF91CF911F910F91FF90EF9008959F924A
S11306B0AF92BF92CF92DF92EF92FF920F931F936C
S11306C0CF93DF93962E011102C0CDDF22C0261BEB
S11306D04F5F481BC42ED12C1C141D048CF019C070
S11306E0612F802F76DF21961F5FEC16FD06C4F77D
S11306F08FEFA81AB80A0F5FAC14BD0431F409C017
S1130700082FA12CB12CE22EF12C192DC0E0D0E041
S1130710E7CFDF91CF911F910F91FF90EF90DF9082
S1130720CF90BF90AF909F900895E2E8F1E082E807
S113073095E01192E817F907E1F7089582E891E04E
S11307400C94820C08952F923F924F925F926F9275
S11307507F928F929F92AF92BF92CF92DF92EF924D
S1130760FF920F931F93CF93DF93562E59014801A5
S1130770DE2D382E4E2C480E50E06A01CC0CDD1CC8
S1130780CC0CDD1C4C0D5D1D9A0128563F4F6901B0
S1130790682E212C6894772473F8760E35E023169E
S11307A091F1F601149130C010FF0DC0D13021F445
S11307B06C2F832D0EDF16C001E02E2D442D6F2DDE
S11307C0862D75DF0FC08A149B0461F0D13021F4AB
S11307D06C2F832DFEDE06C001E02E2D442D6F2DDF
S11307E0862D65DF1695FD0EED0ECF5FC711DCCFAC
S11307F023946D0E4D0E3394FFEFCF1ADF0A26E0DB
S11308002212CCCF06C010E0C52DE52CED0EF52C40
S1130810CBCFDF91CF911F910F91FF90EF90DF909D
S1130820CF90BF90AF909F908F907F906F905F908C
S11308304F903F902F900895AF92BF92CF92DF9246
S1130840EF920F931F93CF935B01FA01C82F40815E
S11308504423A9F06F018FEFC81AD80A6894EE24D4
S1130860E1F800E010E020E030E0B5018C2F90E0EA
S11308706ADFC45FF60141916F014111EFCFCF915F
S11308801F910F91EF90DF90CF90BF90AF9008959C
S1130890AF92BF92CF92DF92EF92FF920F931F938A
S11308A0CF93DF93CDB7DEB76C015B01EDB6FEB637
S11308B04A3051054CF04436510544F0483E23E09B
S11308C0520734F087E005C082E003C083E001C032
S11308D084E02DB73EB7281B31090FB6F8943EBF0C
S11308E00FBE2DBF0DB71EB70F5F1F4F5F934F9302
S11308F082E191E09F938F931F930F930E94F40DD5
S1130900402F512FB501C60197DF0F900F900F9024
S11309100F900F900F900FB6F894FEBE0FBEEDBE71
S1130920DF91CF911F910F91FF90EF90DF90CF90C7
S1130930BF90AF900895F9DE45E151E068E170E0C1
S113094088E190E079DFFACE0895CF93C82FEDDEE9
S113095042E166E08CE05ADE42E166E08BE056DE7E
S11309604DE151E068E070E08FE090E065DF4FE139
S113097051E068E070E081E290E05EDF41E251E046
S113098068E070E083E390E057DF43E251E068E021
S113099070E083E490E050DF45E251E068E070E00D
S11309A085E590E049DF47E251E068E070E087E6E2
S11309B090E042DF42E166E084E728DE42E166E05F
S11309C085E724DE49E251E06CE170E080E090E0EC
S11309D033DF41E351E06CE170E08AE590E02CDF25
S11309E045E351E06CE270E080E090E025DF4C2FBD
S11309F050E06CE270E084E690E04ADF9FDECF9145
S1130A0008954AE451E060E070E08CE090E014DF87
S1130A1040E264E189E0FADD4EE351E064E170E034
S1130A208CE090E009DF40E264E185E2EFDD41E43F
S1130A3051E064E170E088E290E0FEDE40E264E1CF
S1130A4081E4E4DD44E451E064E170E084E490E0B6
S1130A50F3DE40E264E18DE5D9DD47E451E064E191
S1130A6070E080E690E0E8DE40E264E189E7CECD24
S1130A7008958230B1F018F4813031F00895833054
S1130A80E9F0843041F1089547E166E28CE0D1DD7C
S1130A9047E168E28CE0CDDD47E16AE28CE0C9CD54
S1130AA0089547E166E288E2C4DD47E168E288E24E
S1130AB0C0DD47E16AE288E2BCCD089547E166E221
S1130AC084E4B7DD47E168E284E4B3DD47E16AE248
S1130AD084E4AFCD089547E166E280E6AADD47E10C
S1130AE068E280E6A6DD47E16AE280E6A2CD0895E9
S1130AF0CF93DF93EC0119DE44E551E060E270E04E
S1130B0085E090E099DEAE0160E270E080E590E07F
S1130B10BFDE14DEDF91CF910895CF93DF93EC0114
S1130B2004DE4BE551E060E270E085E090E084DEB5
S1130B30AE0160E270E080E590E0AADEFFDDDF91C7
S1130B40CF910895CF93DF93EC01EFDD42E651E0BE
S1130B5060E270E085E090E06FDEAE0160E270E09C
S1130B6080E590E095DEEADDDF91CF910895CF93A3
S1130B70DF93EC01DADD48E651E060E270E085E005
S1130B8090E05ADEAE0160E270E080E590E080DE45
S1130B90D5DDDF91CF9108951092B90080E2809362
S1130BA0B800089594EA9093BC00ECEBF0E09081D7
S1130BB09923ECF79091B900987F983011F0903117
S1130BC0A1F48093BB0084E88093BC00ECEBF0E0DC
S1130BD080818823ECF79091B900987F983139F09F
S1130BE081E0903429F480E0089581E0089580E064
S1130BF008958093BB0084E88093BC00ECEBF0E0A4
S1130C0080818823ECF79091B900987F81E0983235
S1130C1009F480E0089584E98093BC00ECEBF0E0F3
S1130C20808184FDFDCF089510928000089514BC46
S1130C30089525B5226025BD16BCA89B17C0A89AA7
S1130C4015C0A89BFECFA89A2F5F3F4F28173907DE
S1130C501CF4A89BF6CFF7CF4150510919F020E0BE
S1130C6030E0F4CF85B5887F85BD089544E050E039
S1130C70F6CF1092900008958F929F92AF92BF92F8
S1130C80CF92DF92EF92FF920F931F93CF93DF9354
S1130C907B015A01DA01ED91FC91EC01992324F4D2
S1130CA0CC27DD27C81BD90B4E01181619063CF0BA
S1130CB0C92ECC0CCC080C2C000CDD0803C0CC24B1
S1130CC0C394D12CB0E18B16910440F49401369571
S1130CD02795022F3FE0532F521B02C008E057E034
S1130CE0EC0DFD1DE430F10539F0EF3FCFEFFC07CB
S1130CF029F4E3E0F0E002C0E0E0F0E025B5226092
S1130D0025BD16BCA899A89ADF01AA0FBB1FA65F30
S1130D10BE4F2C9122B9D2E08D16910408F442C042
S1130D204FE0A2E0B0E010E00F5F1F4F94012A1BD8
S1130D303B0B0217130720F4541730F4415007C03B
S1130D404F3020F44F5F03C0452F01C04FE0EC0D3E
S1130D50FD1DE430F10539F0EF3F2FEFF20729F4E0
S1130D60E3E0F0E002C0E0E0F0E0242F30E0220F06
S1130D70331F220F331F60E070E005C0A89B03C03F
S1130D80A89A6F5F7F4F62177307C4F39F01220F06
S1130D90331F265F3E4FE901288122B911968A1636
S1130DA09B0620F625B5287F25BDD501ED93FC9340
S1130DB0E70128813981F901E81BF90BCF0168ECBF
S1130DC070E0EBD699838883DF91CF911F910F91C7
S1130DD0FF90EF90DF90CF90BF90AF909F908F9057
S1130DE00895EF92FF920F931F93CF93DF938C019B
S1130DF07B0112B8C0E0D0E010C0FE01EE0FFF1F6F
S1130E00E65FFE4F808182B98EE190E012DF219689
S1130E10C430D10511F4C0E0D0E00799EECFC4305E
S1130E20D105A9F1CF3F8FEFD80741F1FE01EE0FB5
S1130E30FF1FE65FFE4F808182B98EE190E0F9DE0C
S1130E402196C430D10539F0CF3FEFEFDE0729F406
S1130E50C3E0D0E002C0C0E0D0E0FE01EE0FFF1F0F
S1130E60E65FFE4F808182B98EE190E0E2DEF70119
S1130E70D183C083F8011182108212C080911001C5
S1130E8082B98EE190E0D5DEC0E0D0E0E6CF80917B
S1130E900A0182B98EE190E0CCDEC1E0D0E0DDCF82
S1130EA0DF91CF911F910F91FF90EF900895BC01B6
S1130EB0E0EBF0E0808183688083E1EBF0E0808107
S1130EC084608083072E000C880B990B77D523E36D
S1130ED033E343E250E4D6D543D56093B3008EB1F7
S1130EE0807F8EB908958DB38C6F8DBBE9E6F0E0F9
S1130EF08081806B8083EAE6F0E080818A6B808366
S1130F00E8E6F0E0808181608083EBE6F0E08081B8
S1130F108E6E80830895EAE7F0E080818D68808397
S1130F20ECE7F0E08081816480838081817E80832E
S1130F300895262F30E040918205437050E0421717
S1130F40530781F04EB1407F4EB94EB12095309594
S1130F5023703327220F331F220F331F242B2EB964
S1130F6060938205BC01990F880B990B27D523E365
S1130F7033E343E250E486D5F3D467BD0895CF93B9
S1130F80DF9300D000D0CDB7DEB7E1E6F0E080E833
S1130F90808310821A8219821C821B82F89483E255
S1130FA090E085DFA0DFB7DFF7DD79D4BEDBC6DBF9
S1130FB0C2DC3DDE39DE5DDE8FE381B980E184B9D8
S1130FC08FEF87B983EF8AB91FE01DB910BA85B1D5
S1130FD08E6E85B98EB180638EB97894109299061D
S1130FE01092980610920D0610920C061092290782
S1130FF010922807109213061092120610928B0575
S113100010928A0510920F0610922A071092110668
S11310108AEA88B980ED97E00CDE18B980ED97E094
S113102008DEBE016D5F7F4FCE010196DADE62E01D
S113103083E290E07EDF66246A94762C44244A940A
S1131040542C212C332433940F2EF2E38F2E912C25
S1131050F02D0F2EF6E9AF2EB12CF02D01E910E0A2
S1131060CC24C394D12C0F2EF4E9EF2EF12CF02DC7
S11310705EC13092890580910F06882329F12110E1
S11310800DC0F801808181608083F7011182108294
S1131090C09B03C0C09A232C01C0232CC09B14C046
S11310A010920F06F8018081887F8083E0912807E1
S11310B0F09129073197EF73FF27EE0FFF1FEA5EC8
S11310C0F94FD182C082212C80911106882309F422
S11310D0BDC010921106109215061092140684E0F9
S11310E090E0E0919606F0919706EE0FFF1FE6560A
S11310F0F94F408151812091140630911506240F37
S1131100351F3093150620931406209196063091CE
S113111097062F5F3F4F30939706209396062091B2
S113112096063091970623703327309397062093C1
S113113096060197B1F6809114069091150696953E
S113114087959695879590931506809314068091BC
S113115014069091150688B98BB18F708BB9809164
S11311601406909115062BB1882793709695879550
S11311709695879596958795822B8BB9E0910C0669
S1131180F0910D06EE0FFF1FEA5EF94F8081918109
S1131190E0910C06F0910D06EE0FFF1FEA5EF94F89
S11311A01182108280911406909115068C32914020
S11311B058F4E0910C06F0910D06EE0FFF1FE45772
S11311C0FA4FB182A08230C0809114069091150626
S11311D08235934058F4E0910C06F0910D06EE0F21
S11311E0FF1FE457FA4F918280821EC0809114063B
S11311F090911506803C934068F4E0910C06F091C0
S11312000D06EE0FFF1FE457FA4F84E690E091833A
S113121080830AC0E0910C06F0910D06EE0FFF1FCB
S1131220E457FA4F1182108280910C0690910D06BA
S1131230019690930D0680930C0680918A059091F7
S11312408B05019790938B0580938A0580912A07DB
S11312508823B1F1E0911206F0911306EE0FFF1FFF
S1131260E457FA4F2081318189819A81821B930B43
S1131270E1F02EB1207F2EB99C01992324F422277A
S11312803327281B390B253631053CF099231CF4F0
S113129088539F4F02C0885C9109AE014D5F5F4F38
S11312A0BE016F5F7F4FE8DC729A809112069091C5
S11312B013060196909313068093120610922A0740
S11312C080918A0590918B051816190644F0809137
S11312D00C0690910D06909329078093280780911E
S11312E02807909129078F73992790932907809352
S11312F0280780910C0690910D068F73992790937F
S11313000D0680930C0680919806909199068F7330
S1131310992790939906809398068091120690914C
S113132013068F7399279093130680931206809166
S11313308805882309F49DCE809188058130C1F405
S113134080918705811105C082E2FFDA1092890538
S11313500FC080918705813059F4E7D94FE651E0F9
S113136068E170E088E190E067DAE8D910928905D5
S113137080918805823059F4D8D948E751E060E17A
S113138070E08CE090E058DAD9D9309288058091E9
S11313908805833059F530928905C7D932DB8091AD
S11313A0090167DBCBD980918605882369F0109207
S11313B08605809109018F5F80930901809109015D
S11313C0853010F03092090180918505882371F0F1
S11313D010928505809109018150809309018091C3
S11313E00901811103C094E090930901809188055B
S11313F0843009F0A2C080910901823081F118F48F
S1131400813041F09AC0833009F44EC0843009F42D
S113141070C093C080918305813061F4109283057C
S113142080910601909107010196909307018093A2
S113143006010FC080918405813059F4109284050F
S11314408091060190910701019790930701809381
S1131450060180910601909107014ADB6EC08091DC
S11314608305813061F41092830580910401909189
S11314700501019690930501809304010FC08091AA
S11314808405813059F4109284058091040190916F
S11314900501019790930501809304018091040153
S11314A0909105013ADB49C080918305813061F454
S11314B0109283058091020190910301019690930B
S11314C00301809302010FC080918405813059F497
S11314D010928405809102019091030101979093E9
S11314E003018093020180910201909103012ADBA0
S11314F024C080918305813061F41092830580912A
S113150000019091010101969093010180930001E3
S11315100FC080918405813059F410928405809124
S113152000019091010101979093010180930001C2
S113153080910001909101011ADB8091880585302A
S113154009F0F5CE65C080911106882309F461C0C5
S113155010921106109215061092140684E090E081
S1131560E0919606F0919706EE0FFF1FE656F94FAD
S1131570608171814091140650911506460F571FE2
S11315805093150640931406409196065091970681
S11315904F5F5F4F5093970640939606409196068F
S11315A0509197064370552750939706409396069B
S11315B00197B1F68091140690911506969587953A
S11315C0969587959093150680931406809114063A
S11315D090911506211104C06090140670901506B0
S11315E080911406909115068415950520F4409079
S11315F014065090150680911406909115066816ED
S1131600790620F460901406709015062F5F01C0CF
S113161020E080918805853009F089CE283009F0D2
S113162092CF85CE1F920F920FB60F9211240F9076
S11316300FBE0F901F9018951F920F920FB60F9226
S113164011240F900FBE0F901F9018951F920F92A8
S11316500FB60F9211248F939F9380918805823047
S113166090F4809128079091290701969093290777
S11316708093280780918A0590918B050196909319
S11316808B0580938A059F918F910F900FBE0F90C9
S11316901F9018951F920F920FB60F9211248F93DB
S11316A081E080930F068F910F900FBE0F901F90D3
S11316B018951F920F920FB60F9211240BB60F922A
S11316C08F939F93EF93FF938FEF9FEF9093270751
S11316D080932607EAE7F0E0808180648083FF91AD
S11316E0EF919F918F910F900BBE0F900FBE0F90B3
S11316F01F9018951F920F920FB60F9211248F937B
S113170081E080932A078F910F900FBE0F901F9056
S113171018951F920F920FB60F9211240BB60F92C9
S11317202F933F938F939F93EF93FF932091780090
S1131730309179008091260790912707281739075F
S113174048F58091780090917900909327078093D1
S11317502607E0919606F0919706809126079091CE
S11317602707EE0FFF1FE656F94F91838083809180
S11317709606909197060196909397068093960605
S11317808091960690919706837099279093970677
S113179080939606669B06C0EAE7F0E08081806449
S11317A0808303C081E080931106FF91EF919F91A4
S11317B08F913F912F910F900BBE0F900FBE0F9002
S11317C01F9018951F920F920FB60F9211248F93AA
S11317D081E0809386058F910F900FBE0F901F902C
S11317E018951F920F920FB60F9211248F9381E0D8
S11317F0809384058F910F900FBE0F901F901895C2
S11318001F920F920FB60F9211248F939F9393B14F
S113181080910801892793B19093080188231CF4CF
S113182091E09093830586FF03C091E09093850532
S113183085FF07C090918805933019F494E0909344
S1131840880583FF03C093E09093880582FF06C058
S113185091E09093870592E09093880581FF0DC0F5
S113186080918905811103C01092880506C080917A
S11318708905813011F4809388059F918F910F9091
S11318800FBE0F901F901895CF93C82F88E78AD961
S113189080E0AFD98C2FADD9BED9CF9108958EEA0F
S11318A0F3DF85EDF1DF80E8EFDF88EAEDDF8FE33A
S11318B0EBDF83EDE9DF80E0E7DF80E4E5DF8DE85F
S11318C0E3DF84E1E1DF80E2DFDF80E0DDDF81EA86
S11318D0DBDF88ECD9DF8AEDD7DF82E1D5DF81E871
S11318E0D3DF8FECD1DF89EDCFDF81EFCDDF8BED5F
S11318F0CBDF80E4C9DF84EAC7DF86EAC5DF8FEA8D
S1131900C3CF0895EF92FF920F931F93CF93DF936A
S11319107C0181E2B9DF80E0B7DF8FE7B5DF82E2E7
S1131920B3DF80E0B1DF87E0AFDFE7018CEFF81AC7
S113193088E738D980E45DD98E01005F1F4F899113
S113194058D9C017D107D9F766D9E8010E151F0574
S113195079F7DF91CF911F910F91FF90EF90089548
S113196070D088F09F5790F0B92F9927B751A0F005
S1131970D1F0660F771F881F991F1AF0BA95C9F71F
S113198012C0B13081F077D0B1E0089574C0672FF0
S1131990782F8827B85F39F0B93FCCF386957795CF
S11319A06795B395D9F73EF49095809570956195B8
S11319B07F4F8F4F9F4F0895E89409C097FB3EF4E3
S11319C090958095709561957F4F8F4F9F4F992388
S11319D0A9F0F92F96E9BB279395F6958795779506
S11319E06795B795F111F8CFFAF4BB0F11F460FFC6
S11319F01BC06F5F7F4F8F4F9F4F16C0882311F01E
S1131A0096E911C0772321F09EE8872F762F05C031
S1131A10662371F096E8862F70E060E02AF09A95CC
S1131A20660F771F881FDAF7880F9695879597F9C1
S1131A30089557FD9058440F551F59F05F3F71F0BA
S1131A404795880F97FB991F61F09F3F79F0879521
S1131A500895121613061406551FF2CF4695F1DFAA
S1131A6008C0161617061806991FF1CF869571053A
S1131A70610508940895E894BB2766277727CB016E
S1131A8097F908950BD078C069D028F06ED018F07B
S1131A90952309F05AC05FC01124EECFCADFA0F32A
S1131AA0959FD1F3950F50E0551F629FF001729FEF
S1131AB0BB27F00DB11D639FAA27F00DB11DAA1F0E
S1131AC0649F6627B00DA11D661F829F2227B00D5B
S1131AD0A11D621F739FB00DA11D621F839FA00DE6
S1131AE0611D221F749F3327A00D611D231F849F36
S1131AF0600D211D822F762F6A2F11249F5750408D
S1131B008AF0E1F088234AF0EE0FFF1FBB1F661F27
S1131B10771F881F91505040A9F79E3F510570F0E0
S1131B2014C0AACF5F3FECF3983EDCF3869577951B
S1131B306795B795F795E7959F5FC1F7FE2B880FDB
S1131B40911D9695879597F9089597F99F6780E871
S1131B5070E060E008959FEF80EC089500240A94FB
S1131B601616170618060906089500240A94121674
S1131B701306140605060895092E0394000C11F4A7
S1131B80882352F0BB0F40F4BF2B11F460FF04C054
S1131B906F5F7F4F8F4F9F4F089597FB072E16F46B
S1131BA0009406D077FD08D00BD007FC05D03EF496
S1131BB0909581959F4F0895709561957F4F0895F5
S1131BC0AA1BBB1B51E107C0AA1FBB1FA617B7075F
S1131BD010F0A61BB70B881F991F5A95A9F780957B
S1131BE09095BC01CD0108950F931F93CF93DF937C
S1131BF0CDB7DEB72E970FB6F894DEBF0FBECDBFBC
S1131C000D891E8986E08C831A8309838FEF9FE7F1
S1131C109E838D83AE01475E5F4F6F89788DCE01C1
S1131C20019610D0EF81F885E00FF11F10822E96F7
S1131C300FB6F894DEBF0FBECDBFDF91CF911F91D9
S1131C400F9108952F923F924F925F926F927F92DD
S1131C508F929F92AF92BF92CF92DF92EF92FF92B8
S1131C600F931F93CF93DF93CDB7DEB72B970FB6A8
S1131C70F894DEBF0FBECDBF6C017B018A01FC016D
S1131C8017821682838181FFBFC1CE0101963C0178
S1131C90F6019381F70193FD859193FF81917F0173
S1131CA0882309F4ADC1853239F493FD859193FFFE
S1131CB081917F01853221F4B60190E0D6D1E8CF3D
S1131CC0912C212C312CFFE1F315D8F08B3279F0D3
S1131CD038F4803279F08332A1F4232D20611DC0C1
S1131CE08D3261F0803369F4232D216016C0832D79
S1131CF08260382EE32DE4603E2E2AC0F32DF86076
S1131D001DC037FC2DC020ED280F2A3040F08E3244
S1131D10B9F436FC75C1232D2064322E19C036FE69
S1131D2006C08AE0989E200D1124922E11C0EAE08C
S1131D302E9E200D1124222EF32DF0623F2E08C07A
S1131D408C3621F4832D8068382E02C0883641F405
S1131D50F70193FD859193FF81917F018111B3CFA9
S1131D60982F9F7D9554933028F40C5F1F4F9FE369
S1131D7099830DC0833631F0833771F0833509F0D0
S1131D8055C020C0F801808189830E5F1F4F8824CD
S1131D908394912C530112C02801F2E04F0E511C80
S1131DA0F801A080B18036FE03C0692D70E002C046
S1131DB06FEF7FEFC5014ED14C018201F32DFF7708
S1131DC03F2E15C0280122E0420E511CF801A080CC
S1131DD0B18036FE03C0692D70E002C06FEF7FEF63
S1131DE0C5012DD14C01F32DF0683F2E820133FC47
S1131DF019C0822D90E088169906A0F4B60180E2FD
S1131E0090E033D12A94F5CFF50137FC859137FE64
S1131E1081915F01B60190E028D121102A9421E03C
S1131E20821A91088114910479F7E1C0843611F083
S1131E30893639F5F80137FE07C0608171818281E6
S1131E4093810C5F1F4F08C060817181072E000CC5
S1131E50880B990B0E5F1F4FF32DFF763F2E97FFD4
S1131E6009C090958095709561957F4F8F4F9F4FD6
S1131E70F0683F2E2AE030E0A30133D1882E861883
S1131E8044C0853731F4232D2F7EB22E2AE030E072
S1131E9025C0932D997FB92E8F36C1F018F488355B
S1131EA079F0AEC0803719F0883721F0A9C0E92F46
S1131EB0E061BE2EB4FE0DC0FB2DF460BF2E09C040
S1131EC034FE0AC0292F2660B22E06C028E030E076
S1131ED005C020E130E002C020E132E0F801B7FEA5
S1131EE007C060817181828193810C5F1F4F06C09E
S1131EF06081718180E090E00E5F1F4FA301F1D0FB
S1131F00882E8618FB2DFF773F2E36FE0DC0232D1D
S1131F102E7FA22E891458F434FE0BC032FC09C063
S1131F20832D8E7EA82E05C0B82CA32C03C0B82CFC
S1131F3001C0B92CA4FE0FC0FE01E80DF11D808183
S1131F40803321F49A2D997EA92E09C0A2FE06C0E1
S1131F50B394B39404C08A2D867809F0B394A3FC97
S1131F6010C0A0FE06C0B21480F4280C922C9B185A
S1131F700DC0B21458F4B60180E290E076D0B39468
S1131F80F8CFB21418F42B1802C0982C212CA4FEFC
S1131F900FC0B60180E390E068D0A2FE16C0A1FC99
S1131FA003C088E790E002C088E590E0B6010CC069
S1131FB08A2D867851F0A1FE02C08BE201C080E236
S1131FC0A7FC8DE2B60190E050D0891430F4B6013C
S1131FD080E390E04AD09A94F8CF8A94F301E80D14
S1131FE0F11D8081B60190E040D08110F6CF22200F
S1131FF009F44ECEB60180E290E037D02A94F7CFB0
S1132000F6018681978102C08FEF9FEF2B960FB662
S1132010F894DEBF0FBECDBFDF91CF911F910F911A
S1132020FF90EF90DF90CF90BF90AF909F908F90F4
S11320307F906F905F904F903F902F900895FC0198
S11320400590615070400110D8F7809590958E0FDF
S11320509F1F0895FC016150704001900110D8F752
S1132060809590958E0F9F1F08950F931F93CF9384
S1132070DF93FB01238121FD03C08FEF9FEF2CC071
S113208022FF16C0468157812481358142175307A8
S113209044F4A081B1819D012F5F3F4F31832083A0
S11320A08C93268137812F5F3F4F3783268314C05B
S11320B08B01EC01FB010084F185E02D0995892B4E
S11320C0E1F6D80116968D919C9117970196179673
S11320D09C938E931697CE01DF91CF911F910F9110
S11320E00895FA01AA27283051F1203181F1E894AA
S11320F06F936E7F6E5F7F4F8F4F9F4FAF4FB1E0F7
S11321003ED0B4E03CD0670F781F891F9A1FA11DF1
S1132110680F791F8A1F911DA11D6A0F711D811DF2
S1132120911DA11D20D009F468943F912AE0269FB7
S113213011243019305D3193DEF6CF010895462F16
S11321404770405D4193B3E00FD0C9F7F6CF462FF7
S11321504F70405D4A3318F0495D31FD4052419360
S113216002D0A9F7EACFB4E0A6959795879577951D
S11321706795BA95C9F700976105710508959B01A4
S1132180AC010A2E06945795479537952795BA952D
S1132190C9F7620F731F841F951FA01D0895F8943B
S10521A0FFCF6B
S11321A2BC022C01C003DE03FF0136002E002D0009
S11321B2350025690052756E6E696E6700500041E4
S11321C20055005300450044004F626A656374730E
S11321D2006277740073656E736F72733A00424CD7
S11321E200574800414C0053540043616C696272C9
S11321F261746500426C61636B3A00776869746567
S11322023A00416C756D3A00537465656C3A00434B
S11322126F6D706C6574650052616D7020446F77E8
S10522226E0048
S9030000FC
