:100000004BC0000066C0000064C0000062C0000079
:1000100060C000005EC000005CC0000058C200006C
:1000200058C0000056C0000054C0000052C000007C
:1000300050C000004EC000004CC000004AC000008C
:1000400048C0000046C0000044C0000042C000009C
:1000500040C000003EC000003CC000003AC00000AC
:1000600038C0000036C0000034C0000032C00000BC
:1000700030C000002EC000002CC000002AC00000CC
:1000800028C0000026C0000024C0000022C00000DC
:1000900020C000001EC0000011241FBECFEFD0E220
:1000A000DEBFCDBF11E0A0E0B1E0EEE3F5E000E09F
:1000B0000BBF02C007900D92A830B107D9F721E01D
:1000C000A8E0B1E001C01D92AC30B207E1F74BD11E
:1000D00034C296CFE1E8F0E080818860808388EECA
:1000E00093E090938900809388001092850010928D
:1000F000840008951092B0000895AC01E1EBF0E0A7
:100100009081936090831092B200B899B89A20E0E1
:1001100030E005C0B89BFECFB89A2F5F3F4F241741
:1001200035071CF4B89BF6CFF7CFE1EBF0E0808108
:10013000887F808308958F929F92AF92BF92CF92D3
:10014000DF92EF92FF920F931F93CF93DF937B0188
:100150005A01DA01ED91FC919C01992324F42227A4
:100160003327281B390B49012031310538F43695E6
:100170002795022F3FE0532F521B02C008E057E0A3
:10018000992324F4CC24CA94DC2C03C0CC24C3943B
:10019000D12CEC0DFD1DE430F10539F0EF3FCFEF30
:1001A000FC0729F4E3E0F0E002C0E0E0F0E0A1EBBE
:1001B000B0E02C9123602C931092B200B899B89AB9
:1001C000DF01AA0FBB1FA050BF4F2C9122B9D2E074
:1001D0008D169104E0F14FE0A2E0B0E010E0940150
:1001E0002A1B3B0B0217130720F4541730F441501D
:1001F00007C04F3020F44F5F03C0452F01C04FE0D0
:10020000EC0DFD1DE430F10539F0EF3F2FEFF20763
:1002100029F4E3E0F0E002C0E0E0F0E0642F70E0F9
:1002200020E030E005C0B89B03C0B89A2F5F3F4F75
:1002300026173707C1F79F01220F331F20503F4F6A
:10024000E901288122B911968A169B0640F6A1EB96
:10025000B0E02C91287F2C93D501ED93FC93E7011E
:1002600028813981820F931F68EC70E03FD1998318
:100270008883DF91CF911F910F91FF90EF90DF90D6
:10028000CF90BF90AF909F908F900895EF92FF9284
:100290000F931F93CF93DF938C017B0112B8C0E0C3
:1002A000D0E010C0FE01EE0FFF1FE050FF4F808135
:1002B00082B98EE190E021DF2196C430D10511F49E
:1002C000C0E0D0E06399EECFC430D105A9F1CF3FB3
:1002D0008FEFD80741F1FE01EE0FFF1FE050FF4FF7
:1002E000808182B98EE190E008DF2196C430D1058B
:1002F00039F0CF3FEFEFDE0729F4C3E0D0E002C0D2
:10030000C0E0D0E0FE01EE0FFF1FE050FF4F808104
:1003100082B98EE190E0F1DEF701D183C083F8016C
:100320001182108212C08091060182B98EE190E0A4
:10033000E4DEC0E0D0E0E6CF8091000182B98EE13A
:1003400090E0DBDEC1E0D0E0DDCFDF91CF911F9107
:100350000F91FF90EF900895EE9AEAE6F0E0808129
:10036000806280830895CF93DF9300D000D0CDB713
:10037000DEB7E1E6F0E080E8808310821A8219821D
:100380001C821B8210920901F894E6DF8FEF81B97D
:1003900087B91DB810BA9EDEADDE789488EE93E082
:1003A000ACDE80EC88B988EE93E0A7DEEB81FC81BF
:1003B000EE0FFF1FE050FF4F808188B988EE93E079
:1003C0009CDEEE24E394F12CEE9A00E010E0C701ED
:1003D000002E02C0880F991F0A94E2F788B988ECB2
:1003E00090E08BDE0F5F1F4F0830110581F706E0AC
:1003F00010E0C701002E02C0880F991F0A94E2F78F
:1004000088B988EC90E079DE0150110990F71092DC
:100410000901BE016D5F7F4FCE01019637DF80EA93
:100420009FE06BDEAE014D5F5F4FBE016F5F7F4FA0
:1004300081E190E080DE80ED97E05FDEAE014D5F10
:100440005F4FBE016F5F7F4F81E290E074DE80ED11
:1004500097E053DEAE014D5F5F4FBE016F5F7F4F90
:1004600084E690E068DE80ED97E047DEAE014D5F08
:100470005F4FBE016F5F7F4F8CE99FEF5CDE80EDC9
:1004800097E03BDEAE014D5F5F4FBE016F5F7F4F78
:100490008FED9FEF50DE80ED97E02FDEAE014D5FD8
:1004A0005F4FBE016F5F7F4F8FEE9FEF44DE80EDA9
:1004B00097E023DEAE014D5F5F4FBE016F5F7F4F60
:1004C0008CE99FEF38DE80ED97E017DE7DCF1F923D
:1004D0000F920FB60F9211248F9381E08093090140
:1004E0008F910F900FBE0F901F90189597FB072EBE
:1004F00016F4009406D077FD08D00BD007FC05D089
:100500003EF4909581959F4F0895709561957F4F2A
:100510000895AA1BBB1B51E107C0AA1FBB1FA6174A
:10052000B70710F0A61BB70B881F991F5A95A9F79C
:0E05300080959095BC01CD010895F894FFCF01
:08053E0036002E002D003500EF
:00000001FF
