:100000004BC0000066C0000064C0000062C0000079
:1000100060C000005EC000005CC0000021C20000A3
:1000200058C0000056C0000054C0000052C000007C
:1000300050C000004EC000004CC000004AC000008C
:1000400048C0000046C0000044C0000042C000009C
:1000500040C000003EC000003CC000003AC00000AC
:1000600038C0000036C0000034C0000032C00000BC
:1000700030C000002EC000002CC000002AC00000CC
:1000800028C0000026C0000024C0000022C00000DC
:1000900020C000001EC0000011241FBECFEFD0E220
:1000A000DEBFCDBF11E0A0E0B1E0E0EDF4E000E0A4
:1000B0000BBF02C007900D92A830B107D9F721E01D
:1000C000A8E0B1E001C01D92AE30B207E1F742D125
:1000D000FDC196CFE1E8F0E080818860808388EE02
:1000E00093E090938900809388001092850010928D
:1000F00084000895AC01E1E8F0E090819160908384
:10010000B19A20E030E005C0B19BFECFB19A2F5FDD
:100110003F4F241735071CF4B19BF6CFF7CFE1E82A
:10012000F0E08081887F808308952F923F924F92E4
:100130005F926F927F928F929F92AF92BF92CF9277
:10014000DF92EF92FF920F931F93CF93DF9300D034
:1001500000D0CDB7DEB73C017A836983992324F4BC
:1001600088279927861997098C018031910538F4E1
:1001700096958795982F24E1222E281A05C098E09D
:100180000F2EFCE02F2EF02D772024F444244A94E7
:10019000542C03C044244394512C0115110509F437
:1001A0004BC0520142010F2EF4E13F2EF02D21E011
:1001B00030E03C832B83E92EF12C680131E0C31A37
:1001C000D108C6014B815C81841B950BE816F906AA
:1001D00020F4231438F43A940BC053E1531520F063
:1001E000339406C0322C04C00F2EF4E13F2EF02DC4
:1001F0008091090190910A01880D991D8370907872
:10020000992324F401978C6F9F6F0196FC01FF27BF
:10021000EE0FFF1FE050FF4F808182B9832D90E0E9
:1002200069DF8B819C8101969C838B838A0C9B1C4C
:100230000817190730F604C0E1E0F0E0FC83EB8317
:100240008091090190910A012B813C812150310953
:10025000A901449D9001459D300D549D300D112400
:10026000820F931F83709078992324F401978C6FE9
:100270009F6F0196880F991FFC01E050FF4F80810E
:10028000918190930A0180930901E981FA8180812B
:100290009181860D971D68EC70E0F1D09183808389
:1002A0000F900F900F900F90DF91CF911F910F91B2
:1002B000FF90EF90DF90CF90BF90AF909F908F9086
:1002C0007F906F905F904F903F902F9008950F9385
:1002D0001F93CF93DF938C0112B880910B01811192
:1002E0001BC0C0E0D0E0CE0183709078992324F445
:1002F00001978C6F9F6F0196880F991FFC01E0504A
:10030000FF4F808182B98EE190E0F4DE21968091EA
:100310000B01882341F302C0C0E0D0E02197C370F5
:10032000D078DD2324F42197CC6FDF6F2196D09312
:100330000A01C0930901F80111821082DF91CF9167
:100340001F910F910895EE9AEAE6F0E080818062B5
:1003500080830895CF93DF9300D0CDB7DEB71A82A4
:10036000198210920B01F894EEDF8FEF81B987B9F3
:100370001DB810BAAFDE789488EE93E0BBDE80EC57
:1003800088B988EE93E0B6DE8091090190910A0168
:1003900088B988EE93E0AEDEEE24E394F12C00E021
:1003A00010E0C701002E02C0880F991F0A94E2F7DF
:1003B00088B988EC90E09EDE0F5F1F4F0830110572
:1003C00081F706E010E0C701002E02C0880F991FD8
:1003D0000A94E2F788B988EC90E08CDE01501109AC
:1003E00090F710920B01CE01019671DF80ED97E03E
:1003F00081DEBE016F5F7F4F81E190E096DE84EF8A
:1004000091E078DEBE016F5F7F4F81E290E08DDE8C
:1004100084EF91E06FDEBE016F5F7F4F84E690E076
:1004200084DE84EF91E066DEBE016F5F7F4F8CE972
:100430009FEF7BDE84EF91E05DDEBE016F5F7F4F5B
:100440008EEC9FEF72DE84EF91E054DEBE016F5FB1
:100450007F4F8CE99FEF69DE84EF91E04BDE9FCF09
:100460001F920F920FB60F9211248F9381E0809309
:100470000B018F910F900FBE0F901F90189597FB57
:10048000072E16F4009406D077FD08D00BD007FC99
:1004900005D03EF4909581959F4F08957095619594
:1004A0007F4F0895AA1BBB1B51E107C0AA1FBB1FAA
:1004B000A617B70710F0A61BB70B881F991F5A95F0
:1004C000A9F780959095BC01CD010895F894FFCFD0
:0804D0003200160029000D00A6
:00000001FF
