S0150000535445505045525F414343454C2E7372656335
S11300004BC0000066C0000064C0000062C0000075
S113001060C000005EC000005CC0000066C200005A
S113002058C0000056C0000054C0000052C0000078
S113003050C000004EC000004CC000004AC0000088
S113004048C0000046C0000044C0000042C0000098
S113005040C000003EC000003CC000003AC00000A8
S113006038C0000036C0000034C0000032C00000B8
S113007030C000002EC000002CC000002AC00000C8
S113008028C0000026C0000024C0000022C00000D8
S113009020C000001EC0000011241FBECFEFD0E21C
S11300A0DEBFCDBF11E0A0E0B1E0EAE5F5E000E09D
S11300B00BBF02C007900D92A830B107D9F721E019
S11300C0A8E0B1E001C01D92AC30B207E1F759D10C
S11300D042C296CFE1E8F0E080818860808388EEB8
S11300E093E0909389008093880010928500109289
S11300F0840008951092B0000895AC01E1EBF0E0A3
S11301009081936090831092B200B899B89A20E0DD
S113011030E005C0B89BFECFB89A2F5F3F4F24173D
S113012035071CF4B89BF6CFF7CFE1EBF0E0808104
S1130130887F808308958F929F92AF92BF92CF92CF
S1130140DF92EF92FF920F931F93CF93DF937B0184
S11301505A01DA01ED91FC919C01992324F42227A0
S11301603327281B390B49012031310538F43695E2
S11301702795022F3FE0532F521B02C008E057E09F
S1130180992324F4CC24CA94DC2C03C0CC24C39437
S1130190D12CEC0DFD1DE430F10539F0EF3FCFEF2C
S11301A0FC0729F4E3E0F0E002C0E0E0F0E0A1EBBA
S11301B0B0E02C9123602C931092B200B899B89AB5
S11301C0DF01AA0FBB1FA050BF4F2C9122B9D2E070
S11301D08D169104E0F14FE0A2E0B0E010E094014C
S11301E02A1B3B0B0217130720F4541730F4415019
S11301F007C04F3020F44F5F03C0452F01C04FE0CC
S1130200EC0DFD1DE430F10539F0EF3F2FEFF2075F
S113021029F4E3E0F0E002C0E0E0F0E0642F70E0F5
S113022020E030E005C0B89B03C0B89A2F5F3F4F71
S113023026173707C1F79F01220F331F20503F4F66
S1130240E901288122B911968A169B0640F6A1EB92
S1130250B0E02C91287F2C93D501ED93FC93E7011A
S113026028813981820F931F68EC70E04DD1998306
S11302708883DF91CF911F910F91FF90EF90DF90D2
S1130280CF90BF90AF909F908F900895CF92DF92C0
S1130290EF92FF920F931F93CF93DF938C017B0117
S11302A012B8C0E0D0E010C0FE01EE0FFF1FE05016
S11302B0FF4F808182B98EE190E01FDF2196C43028
S11302C0D10511F4C0E0D0E080910901882361F3E5
S11302D010920901EE98C430D105D1F1CF3F2FEF30
S11302E0D20769F1FE01EE0FFF1FE050FF4F80813E
S11302F082B98EE190E001DF2196C430D10539F056
S1130300CF3F3FEFD30729F4C3E0D0E002C0C0E001
S1130310D0E0CE01880F991FFC01E050FF4F6F0120
S1130320808182B98EE190E0E8DEF701D183C08359
S1130330F601808182B9F8011182108212C0809185
S1130340060182B98EE190E0D8DEC0E0D0E0E1CFD2
S11303508091000182B98EE190E0CFDEC1E0D0E06F
S1130360D8CFDF91CF911F910F91FF90EF90DF9045
S1130370CF900895EE9AEAE6F0E08081806280836F
S11303800895CF93DF9300D000D0CDB7DEB7E1E678
S1130390F0E080E8808310821A8219821C821B821A
S11303A010920901F894E6DF8FEF81B987B91DB87F
S11303B010BA90DE9FDE789488EE93E09EDE80ECA7
S11303C088B988EE93E099DEEB81FC81EE0FFF1F84
S11303D0E050FF4F808188B988EE93E08EDEEE24F2
S11303E0E394F12CEE9A00E010E0C701002E02C065
S11303F0880F991F0A94E2F788B988EC90E07DDEB3
S11304000F5F1F4F0830110581F706E010E0C701A8
S1130410002E02C0880F991F0A94E2F788B988EC6D
S113042090E06BDE0150110990F710920901BE01B2
S11304306D5F7F4FCE01019629DF80EA9FE05DDE8C
S1130440AE014D5F5F4FBE016F5F7F4F81E190E072
S113045072DE80ED97E051DEAE014D5F5F4FBE016D
S11304606F5F7F4F81E290E066DE80ED97E045DECE
S1130470AE014D5F5F4FBE016F5F7F4F84E690E03A
S11304805ADE80ED97E039DEAE014D5F5F4FBE016D
S11304906F5F7F4F8CE99FEF4EDE80ED97E02DDE9E
S11304A0AE014D5F5F4FBE016F5F7F4F8FED9FEFDA
S11304B042DE80ED97E021DEAE014D5F5F4FBE016D
S11304C06F5F7F4F8FEE9FEF36DE80ED97E015DE96
S11304D0AE014D5F5F4FBE016F5F7F4F8CE99FEFB1
S11304E02ADE80ED97E009DE7DCF1F920F920FB6D2
S11304F00F9211248F9381E0809309018F910F90C3
S11305000FBE0F901F90189597FB072E16F40094BA
S113051006D077FD08D00BD007FC05D03EF49095AB
S113052081959F4F0895709561957F4F0895AA1BFB
S1130530BB1B51E107C0AA1FBB1FA617B70710F0CA
S1130540A61BB70B881F991F5A95A9F780959095FC
S10D0550BC01CD010895F894FFCF1B
S10B055A36002E002D003500CF
S9030000FC
