:100000004BC0000050C400005DC4000072C400007A
:1000100087C400009CC400005CC00000E1C4000074
:1000200058C0000056C0000054C0000052C000007C
:1000300050C000004EC000004CC000004AC000008C
:1000400048C0000046C0000044C0000042C000009C
:1000500040C000003EC000003CC000003AC00000AC
:1000600038C0000036C0000034C0000032C00000BC
:1000700030C0000083C400002CC000002AC0000073
:1000800028C0000026C0000024C0000022C00000DC
:1000900020C000001EC0000011241FBECFEFD0E220
:1000A000DEBFCDBF11E0A0E0B1E0E4E9FCE000E09C
:1000B0000BBF02C007900D92A830B107D9F721E01D
:1000C000A8E0B1E001C01D92AF30B207E1F7ABD1BB
:1000D000DFC596CFE1E8F0E080818860808388EE1C
:1000E00093E090938900809388001092850010928D
:1000F000840008951092B0000895AC01E1EBF0E0A7
:100100009081936090831092B200B899B89A20E0E1
:1001100030E005C0B89BFECFB89A2F5F3F4F241741
:1001200035071CF4B89BF6CFF7CFE1EBF0E0808108
:10013000887F808308951092900008958F929F92F7
:10014000AF92BF92CF92DF92EF92FF920F931F93E5
:10015000CF93DF937B015A01DA01ED91FC919C0171
:10016000992324F422273327281B390B49012031F6
:10017000310538F436952795022F3FE0532F521B57
:1001800002C008E057E0992324F4CC24CA94DC2C64
:1001900003C0CC24C394D12CEC0DFD1DE430F1053B
:1001A00039F0EF3FCFEFFC0729F4E3E0F0E002C0C5
:1001B000E0E0F0E0A1EBB0E02C9123602C931092F2
:1001C000B200B899B89ADF01AA0FBB1FA050BF4F69
:1001D0002C9122B9D2E08D169104F0F14FE0A2E00B
:1001E000B0E010E00F5F1F4F94012A1B3B0B02177A
:1001F000130720F4541730F4415007C04F3020F457
:100200004F5F03C0452F01C04FE0EC0DFD1DE430F2
:10021000F10539F0EF3F2FEFF20729F4E3E0F0E0CA
:1002200002C0E0E0F0E0642F70E020E030E005C0C4
:10023000B89B03C0B89A2F5F3F4F26173707C1F707
:100240009F01220F331F20503F4FE901288122B91F
:1002500011968A169B0640F6A1EBB0E02C91287F00
:100260002C93D501ED93FC93E70128813981820F0E
:10027000931F68EC70E0E5D499838883DF91CF9178
:100280001F910F91FF90EF90DF90CF90BF90AF90B4
:100290009F908F900895EF92FF920F931F93CF93AB
:1002A000DF938C017B0112B8C0E0D0E010C0FE01EA
:1002B000EE0FFF1FE050FF4F808182B98EE190E08A
:1002C0001CDF2196C430D10511F4C0E0D0E080914C
:1002D0000B0190910C01892B51F310920C0110929B
:1002E0000B01EE98C430D105A9F1CF3F8FEFD807AD
:1002F00041F1FE01EE0FFF1FE050FF4F808182B9F8
:100300008EE190E0FADE2196C430D10539F0CF3F7E
:10031000EFEFDE0729F4C3E0D0E002C0C0E0D0E098
:10032000FE01EE0FFF1FE050FF4F808182B98EE18A
:1003300090E0E3DEF701D183C083F80111821082DF
:1003400012C08091060182B98EE190E0D6DEC0E055
:10035000D0E0E6CF8091000182B98EE190E0CDDE61
:10036000C1E0D0E0DDCFDF91CF911F910F91FF90E1
:10037000EF900895BC0184B5836884BD85B5836022
:1003800085BD072E000C880B990B6CD323E333E358
:1003900043E250E4CBD338D367BD85B1807F85B9C4
:1003A00008958DB38F658DBBE9E6F0E080818E6E98
:1003B0008083EAE6F0E08081826280830895EAE744
:1003C000F0E080818D688083ECE7F0E080818164DB
:1003D00080838081817E80830895262F30E0409144
:1003E0000801437050E04217530781F045B1407F48
:1003F00045B945B12095309523703327220F331F1F
:10040000220F331F242B25B960930801BC01990FDB
:10041000880B990B27D323E333E343E250E486D3DD
:10042000F3D267BD0895CF93DF93CDB7DEB7CA5936
:10043000D1400FB6F894DEBF0FBECDBFE1E6F0E0CD
:1004400080E8808310821A8219821C821B82FE013E
:10045000359680E1DF011D928A95E9F7709680E478
:10046000DF011D928A95E9F7F89488E290E082DF37
:1004700098DFA5DF2FDE3EDE5EDE8FEF81B984B927
:1004800087B980EF8AB91DB810BA789410920A0122
:100490001092090110920C0110920B01BE016D5FC8
:1004A0007F4FCE010196F7DE61E088E290E095DFB4
:1004B000312C412CE12CF12CC12CD12C00E010E08E
:1004C0000F2E88248A94F3E09F2EF02DC756DE4F1E
:1004D00019821882C959D140C956DE4F1982188233
:1004E000C759D1400F2EF1E96F2E712CF02D212C20
:1004F0000F2EFAE7AF2EB12CF02DCB56DE4F4882EF
:10050000C559D140CA56DE4F3882C659D140412C18
:10051000512C8091090190910A0180FF0CC08091BB
:10052000090190910A018E7F992790930A01809387
:1005300009010F5F1F4F8091090190910A0181FF0E
:1005400088C0CA56DE4FB881C659D140B1113AC0F1
:100550000115110561F0F801319765E170E06C0F4C
:100560007D1FE60FF71F408081E0808307C06596FE
:100570004FAC659781E065968FAF6597D3018C91FD
:1005800081608C93E4E9F0E011821082C09B0EC080
:10059000C09AC956DE4F19830883C759D140F1E08C
:1005A000CA56DE4FF883C659D1400CC0C956DE4F3B
:1005B00019830883C759D14061E0CA56DE4F68836A
:1005C000C659D140C09B45C08091090190910A0154
:1005D0008D7F992790930A0180930901D3018C9113
:1005E000887F8C93C956DE4FE881F981C759D14085
:1005F000E017F10749F1C80102978F7390789923AA
:1006000024F40197806C9F6F0196E5E1F0E0EC0F18
:10061000FD1FE80FF91F4082C80101978F73907882
:10062000992324F40197806C9F6F0196E5E1F0E037
:10063000EC0FFD1FE80FF91F21E02083CA56DE4FA3
:100640002882C659D14005C0CA56DE4F2882C659F5
:10065000D1408091090190910A0182FF14C08091DC
:10066000090190910A018B7F992790930A01809349
:100670000901D5018C9180648C93B1E0CB56DE4F9B
:10068000B883C559D1408091090190910A0183FF37
:100690002EC08091090190910A01877F992790933C
:1006A0000A0180930901F701EE0FFF1FEE0FFF1FF4
:1006B000EE0DFF1D65E570E06C0F7D1FE60FF71F67
:1006C0002281338189819A812817390769F485B19C
:1006D000807F85B9AE014D5F5F4FBE016F5F7F4F79
:1006E00080E090E02BDD2B9A7FEFE71AF70A8091EC
:1006F000090190910A0184FFBFC0CB56DE4F88816B
:10070000C559D140882309F4B7C08091090190915F
:100710000A018F7E992790930A01809309018091A5
:100720000D0190910E0188159905A8F480900D0196
:1007300090900E01E32DF0E0EE0FFF1FA1E0B0E07E
:10074000AC0FBD1FEA0FFB1F9582848281E0830DF1
:100750008770382E8CC080910D0190910E0194010C
:10076000255C3F4F2817390708F081C088E090E0EA
:1007700020E030E0432DE42FF0E0EE0FFF1F61E0BA
:1007800070E06C0F7D1FE60FF71F64817581260FE7
:10079000371F4F5F4770019771F7342E36952795B5
:1007A0003695279536952795E5E1F0E0EC0FFD1F8E
:1007B000EC0DFD1D80811082882339F1283C310524
:1007C00090F4F601EE0FFF1FEE0FFF1FEC0DFD1D65
:1007D00085E590E08C0F9D1FE80FF91FA6E9B0E0BA
:1007E000B383A28336C0F601EE0FFF1FEE0FFF1F8B
:1007F000EC0DFD1D65E570E06C0F7D1FE60FF71F2A
:1008000082E390E09383828324C0263B334090F4BC
:10081000F601EE0FFF1FEE0FFF1FEC0DFD1DA5E50E
:10082000B0E0AC0FBD1FEA0FFB1F64E670E07383FE
:1008300062830FC0F601EE0FFF1FEE0FFF1FEC0DDE
:10084000FD1D85E590E08C0F9D1FE80FF91F1382B9
:1008500012829FEFC91AD90ACB56DE4F2882C5599A
:10086000D14088248A940F2EF3E09F2EF02DD501DD
:100870008C9180648C930AC08091090190910A0147
:100880008F7E992790930A01809309018091090135
:1008900090910A010F731127BFE3CB22DD24EFE310
:1008A000EE22FF2436CE1F920F920FB60F92112424
:1008B0008F9385B1807F85B98F910F900FBE0F9078
:1008C0001F9018951F920F920FB60F9211248F93BD
:1008D0009F938091090190910A01816090930A0190
:1008E000809309019F918F910F900FBE0F901F90E1
:1008F00018951F920F920FB60F9211248F939F930A
:100900008091090190910A01826090930A0180937D
:1009100009019F918F910F900FBE0F901F90189516
:100920001F920F920FB60F9211248F939F93809175
:10093000090190910A01846090930A018093090152
:100940009F918F910F900FBE0F901F9018951F923F
:100950000F920FB60F9211248F939F9380910901EC
:1009600090910A01886090930A01809309019F91F8
:100970008F910F900FBE0F901F9018951F920F929E
:100980000FB60F9211242F933F938F939F938091D3
:10099000780090E090930E0180930D019091790082
:1009A00020910D0130910E01892F90E0982F88271A
:1009B000820F931F90930E0180930D018091090186
:1009C00090910A01806190930A01809309019F919F
:1009D0008F913F912F910F900FBE0F901F90189500
:1009E0001F920F920FB60F9211248F939F9381E065
:1009F00090E090930C0180930B019F918F910F9049
:100A00000FBE0F901F90189570D088F09F5790F0F0
:100A1000B92F9927B751A0F0D1F0660F771F881F23
:100A2000991F1AF0BA95C9F712C0B13081F077D08A
:100A3000B1E0089574C0672F782F8827B85F39F028
:100A4000B93FCCF3869577956795B395D9F73EF482
:100A500090958095709561957F4F8F4F9F4F08952A
:100A6000E89409C097FB3EF4909580957095619548
:100A70007F4F8F4F9F4F9923A9F0F92F96E9BB27FE
:100A80009395F695879577956795B795F111F8CF7A
:100A9000FAF4BB0F11F460FF1BC06F5F7F4F8F4FE5
:100AA0009F4F16C0882311F096E911C0772321F0DB
:100AB0009EE8872F762F05C0662371F096E8862F73
:100AC00070E060E02AF09A95660F771F881FDAF7CA
:100AD000880F9695879597F9089557FD9058440F7C
:100AE000551F59F05F3F71F04795880F97FB991F8D
:100AF00061F09F3F79F0879508951216130614064A
:100B0000551FF2CF4695F1DF08C0161617061806D6
:100B1000991FF1CF86957105610508940895E894B1
:100B2000BB2766277727CB0197F908950BD078C0AC
:100B300069D028F06ED018F0952309F05AC05FC034
:100B40001124EECFCADFA0F3959FD1F3950F50E0AB
:100B5000551F629FF001729FBB27F00DB11D639F6F
:100B6000AA27F00DB11DAA1F649F6627B00DA11D15
:100B7000661F829F2227B00DA11D621F739FB00DBB
:100B8000A11D621F839FA00D611D221F749F33272B
:100B9000A00D611D231F849F600D211D822F762FC4
:100BA0006A2F11249F5750408AF0E1F088234AF0C1
:100BB000EE0FFF1FBB1F661F771F881F915050400D
:100BC000A9F79E3F510570F014C0AACF5F3FECF328
:100BD000983EDCF3869577956795B795F795E795F9
:100BE0009F5FC1F7FE2B880F911D9695879597F90A
:100BF000089597F99F6780E870E060E008959FEF9F
:100C000080EC089500240A941616170618060906A3
:100C1000089500240A941216130614060506089572
:100C2000092E0394000C11F4882352F0BB0F40F4FA
:100C3000BF2B11F460FF04C06F5F7F4F8F4F9F4F3A
:100C4000089597FB072E16F4009406D077FD08D080
:100C50000BD007FC05D03EF4909581959F4F0895E9
:100C6000709561957F4F0895AA1BBB1B51E107C08A
:100C7000AA1FBB1FA617B70710F0A61BB70B881F2C
:100C8000991F5A95A9F780959095BC01CD010895BB
:040C9000F894FFCF06
:080C940036002E002D00350092
:00000001FF
