:100000004BC000007DC400008AC400009FC40000F3
:10001000B4C40000C9C400005CC000000EC50000EC
:1000200058C0000056C0000054C0000052C000007C
:1000300050C000004EC000004CC000004AC000008C
:1000400048C0000046C0000044C0000042C000009C
:1000500008C500003EC000003CC000003AC00000DF
:1000600038C0000036C0000034C0000032C00000BC
:1000700030C00000B0C400002CC000002AC0000046
:1000800028C0000026C0000024C0000022C00000DC
:1000900020C000001EC0000011241FBECFEFD0E220
:1000A000DEBFCDBF11E0A0E0B1E0EEE1FDE000E099
:1000B0000BBF02C007900D92A830B107D9F721E01D
:1000C000A8E0B1E001C01D92A131B207E1F7B2D1C1
:1000D00024C696CF1092800008951092B000089523
:1000E000AC01E1EBF0E09081936090831092B2005C
:1000F000B899B89A20E030E005C0B89BFECFB89A16
:100100002F5F3F4F241735071CF4B89BF6CFF7CF6E
:10011000E1EBF0E08081887F808308951092900069
:1001200008958F929F92AF92BF92CF92DF92EF92FB
:10013000FF920F931F93CF93DF937B015A01DA0154
:10014000ED91FC919C01992324F422273327281B4D
:10015000390B49012031310538F436952795022FA6
:100160003FE0532F521B02C008E057E0992324F4CC
:10017000CC24CA94DC2C03C0CC24C394D12CEC0D29
:10018000FD1DE430F10539F0EF3FCFEFFC0729F416
:10019000E3E0F0E002C0E0E0F0E0A1E8B0E02C91A4
:1001A000287F2C93A1EBB0E02C9123602C9310922C
:1001B000B200B899B89ADF01AA0FBB1FA050BF4F79
:1001C0002C9122B9D2E08D169104F0F14FE0A2E01B
:1001D000B0E010E00F5F1F4F94012A1B3B0B02178A
:1001E000130720F4541730F4415007C04F3020F467
:1001F0004F5F03C0452F01C04FE0EC0DFD1DE43003
:10020000F10539F0EF3F2FEFF20729F4E3E0F0E0DA
:1002100002C0E0E0F0E0642F70E020E030E005C0D4
:10022000B89B03C0B89A2F5F3F4F26173707C1F717
:100230009F01220F331F20503F4FE901288122B92F
:1002400011968A169B0640F6A1EBB0E02C91287F10
:100250002C93A1E8B0E02C9121602C9310928500A2
:1002600010928400B099B09A10920A01109209017C
:10027000D501ED93FC93E70128813981820F931F0B
:1002800068EC70E023D599838883DF91CF911F912B
:100290000F91FF90EF90DF90CF90BF90AF909F9025
:1002A0008F900895EF92FF920F931F93CF93DF9358
:1002B0008C017B0112B8C0E0D0E010C0FE01EE0F4F
:1002C000FF1FE050FF4F808182B98EE190E008DF90
:1002D0002196C430D10511F4C0E0D0E080910D0129
:1002E00090910E01892B51F310920E0110920D0185
:1002F000EE98C430D105A9F1CF3F8FEFD80741F177
:10030000FE01EE0FFF1FE050FF4F808182B98EE1AA
:1003100090E0E6DE2196C430D10539F0CF3FEFEF13
:10032000DE0729F4C3E0D0E002C0C0E0D0E0FE0167
:10033000EE0FFF1FE050FF4F808182B98EE190E009
:10034000CFDEF701D183C083F8011182108212C081
:100350008091060182B98EE190E0C2DEC0E0D0E07B
:10036000E6CF8091000182B98EE190E0B9DEC1E074
:10037000D0E0DDCFDF91CF911F910F91FF90EF90F3
:100380000895BC0184B5836884BD85B5836085BD4F
:10039000072E000C880B990BAAD323E333E343E227
:1003A00050E409D476D367BD85B1807F85B90895BF
:1003B0008DB38F658DBBE9E6F0E080818E6E808322
:1003C000EAE6F0E08081826280830895EAE7F0E067
:1003D00080818D688083ECE7F0E080818164808398
:1003E0008081817E80830895262F30E0409108012E
:1003F000437050E04217530781F045B1407F45B943
:1004000045B12095309523703327220F331F220FDB
:10041000331F242B25B960930801BC01990F880B69
:10042000990B65D323E333E343E250E4C4D331D3E0
:1004300067BD0895CF93DF93CDB7DEB7C959D140DB
:100440000FB6F894DEBF0FBECDBFE1E6F0E080E866
:10045000808310821A8219821C821B82FE013596CB
:1004600080E1DF011D928A95E9F7709680E4DF0153
:100470001D928A95E9F7F89488E290E082DF98DF90
:10048000A5DF28DE2ADE4ADE8FEF81B984B987B97D
:1004900080EF8AB91DB810BA789410920C011092AE
:1004A0000B0110920E0110920D0110920A01109290
:1004B0000901BE016D5F7F4FCE010196F3DE61E061
:1004C00088E290E091DFCB56DE4F1882C559D140CB
:1004D000412CA12CB12CE12CF12CC12CD12C00E011
:1004E00010E0512C0F2E22242A94F3E03F2EF02D01
:1004F000C856DE4F19821882C859D140CA56DE4FFD
:1005000019821882C659D1400F2EFAE76F2E712C2E
:10051000F02D0F2EF1E88F2E912CF02D80910B01F4
:1005200090910C0180FF0CC080910B0190910C0107
:100530008E7F992790930C0180930B010F5F1F4FC3
:1005400080910B0190910C0181FFA0C0CB56DE4F32
:10055000B881C559D140B1114CC001151105A1F0A8
:10056000F801319725E130E02C0F3D1FE20FF31F1A
:100570008081682F70E0C856DE4F79836883C85940
:10058000D14081E080830FC065968FAD6597A82F1D
:10059000B0E0C856DE4FB983A883C859D14081E086
:1005A00065968FAF6597E1E9F0E080818160808397
:1005B000A4E9B0E011961C921E92C09B0EC0C09A96
:1005C000CA56DE4F19830883C659D140B1E0CB56D5
:1005D000DE4FB883C559D1400CC0CA56DE4F1983CF
:1005E0000883C659D140E1E0CB56DE4FE883C559B8
:1005F000D140C09B4BC080910B0190910C018D7F2D
:10060000992790930C0180930B01A1E9B0E08C91A4
:10061000887F8C93CA56DE4FE881F981C659D14054
:10062000E017F10771F1C80102978F739078992351
:1006300024F40197806C9F6F0196E5E1F0E0EC0FE8
:10064000FD1FE80FF91FC856DE4F2881C859D14059
:100650002083C80101978F739078992324F4019720
:10066000806C9F6F0196E5E1F0E0EC0FFD1FE80F55
:10067000F91F21E02083CB56DE4F1882C559D140A7
:1006800005C0CB56DE4F1882C559D14080910B0171
:1006900090910C0182FF10C080910B0190910C0190
:1006A0008B7F992790930C0180930B01D3018C9140
:1006B00080648C934424439480910B0190910C01AD
:1006C00083FF40C080910B0190910C01877F992797
:1006D00090930C0180930B01F701EE0FFF1FEE0FBB
:1006E000FF1FEE0DFF1D25E530E02C0F3D1FE20F33
:1006F000F31F89819A8122813381821B930BE1F060
:1007000025B1207F25B99C01992324F42227332782
:10071000281B390B253631053CF099231CF48853EE
:100720009F4F02C0885C9109AE014D5F5F4FBE01D3
:100730006F5F7F4FF6DC2B9A31E0A31AB1086FEFA1
:10074000E61AF60A80910B0190910C0184FFB9C062
:10075000442009F4B6C080910B0190910C018F7E6A
:10076000992790930C0180930B0180910F01909138
:10077000100182159305A8F420900F01309010010C
:10078000E52DF0E0EE0FFF1F81E090E08C0F9D1F44
:10079000E80FF91F3582248281E0850D8770582E7D
:1007A0008BC080910F01909110019101255C3F4F0A
:1007B0002817390708F080C088E090E020E030E09A
:1007C000452DE42FF0E0EE0FFF1FA1E0B0E0AC0FED
:1007D000BD1FEA0FFB1F64817581260F371F4F5F16
:1007E0004770019771F7542E3695279536952795C2
:1007F00036952795E5E1F0E0EC0FFD1FEC0DFD1DB2
:1008000080811082882339F1283C310590F4F6016B
:10081000EE0FFF1FEE0FFF1FEC0DFD1D25E530E075
:100820002C0F3D1FE20FF31F66E970E073836283B4
:1008300036C0F601EE0FFF1FEE0FFF1FEC0DFD1D82
:1008400085E590E08C0F9D1FE80FF91FA2E3B0E053
:10085000B383A28324C0263B334090F4F601EE0F0D
:10086000FF1FEE0FFF1FEC0DFD1D25E530E02C0FE7
:100870003D1FE20FF31F64E670E0738362830FC0D5
:10088000F601EE0FFF1FEE0FFF1FEC0DFD1D85E5BE
:1008900090E08C0F9D1FE80FF91F138212829FEFCB
:1008A000C91AD90AAFEFAA1ABA0A412C22242A94EB
:1008B0000F2EF3E03F2EF02DF301808180648083C2
:1008C0000AC080910B0190910C018F7E9927909323
:1008D0000C0180930B0180910B0190910C01A114EC
:1008E000B10409F0412CD4018C91887F8C930F7353
:1008F0001127BFE3CB22DD24EFE3EE22FF240ECE4F
:100900001F920F920FB60F9211248F9385B1807FA3
:1009100085B98F910F900FBE0F901F9018951F9261
:100920000F920FB60F9211248F939F9380910B011A
:1009300090910C01816090930C0180930B019F9129
:100940008F910F900FBE0F901F9018951F920F92CE
:100950000FB60F9211248F939F9380910B0190916A
:100960000C01826090930C0180930B019F918F91F9
:100970000F900FBE0F901F9018951F920F920FB6F9
:100980000F9211248F939F9380910B0190910C01F2
:10099000846090930C0180930B019F918F910F9035
:1009A0000FBE0F901F9018951F920F920FB60F92C7
:1009B00011248F939F9380910B0190910C0188607B
:1009C00090930C0180930B019F918F910F900FBE1C
:1009D0000F901F9018951F920F920FB60F9211242F
:1009E0002F933F938F939F938091780090E0909303
:1009F000100180930F019091790020910F013091A7
:100A00001001892F90E0982F8827820F931F9093D1
:100A1000100180930F0180910B0190910C01806176
:100A200090930C0180930B019F918F913F912F9197
:100A30000F900FBE0F901F9018951F920F920FB638
:100A40000F9211248F939F9381E090E090930E0179
:100A500080930D019F918F910F900FBE0F901F906B
:100A600018951F920F920FB60F9211248F939F9398
:100A70008091090190910A01019690930A01809357
:100A80000901B09A9F918F910F900FBE0F901F9008
:100A9000189570D088F09F5790F0B92F9927B751CB
:100AA000A0F0D1F0660F771F881F991F1AF0BA9532
:100AB000C9F712C0B13081F077D0B1E0089574C0A9
:100AC000672F782F8827B85F39F0B93FCCF3869528
:100AD00077956795B395D9F73EF490958095709585
:100AE00061957F4F8F4F9F4F0895E89409C097FB02
:100AF0003EF490958095709561957F4F8F4F9F4FF5
:100B00009923A9F0F92F96E9BB279395F695879538
:100B100077956795B795F111F8CFFAF4BB0F11F4FB
:100B200060FF1BC06F5F7F4F8F4F9F4F16C08823A2
:100B300011F096E911C0772321F09EE8872F762FD8
:100B400005C0662371F096E8862F70E060E02AF019
:100B50009A95660F771F881FDAF7880F9695879505
:100B600097F9089557FD9058440F551F59F05F3F6E
:100B700071F04795880F97FB991F61F09F3F79F0BF
:100B800087950895121613061406551FF2CF469541
:100B9000F1DF08C0161617061806991FF1CF8695C3
:100BA0007105610508940895E894BB2766277727A7
:100BB000CB0197F908950BD078C069D028F06ED09A
:100BC00018F0952309F05AC05FC01124EECFCADF98
:100BD000A0F3959FD1F3950F50E0551F629FF00150
:100BE000729FBB27F00DB11D639FAA27F00DB11DA9
:100BF000AA1F649F6627B00DA11D661F829F222732
:100C0000B00DA11D621F739FB00DA11D621F839FB8
:100C1000A00D611D221F749F3327A00D611D231F8E
:100C2000849F600D211D822F762F6A2F11249F57DC
:100C300050408AF0E1F088234AF0EE0FFF1FBB1FFF
:100C4000661F771F881F91505040A9F79E3F51059E
:100C500070F014C0AACF5F3FECF3983EDCF38695AA
:100C600077956795B795F795E7959F5FC1F7FE2B49
:100C7000880F911D9695879597F9089597F99F6725
:100C800080E870E060E008959FEF80EC0895002414
:100C90000A941616170618060906089500240A94E1
:100CA00012161306140605060895092E0394000C67
:100CB00011F4882352F0BB0F40F4BF2B11F460FFF6
:100CC00004C06F5F7F4F8F4F9F4F089597FB072E94
:100CD00016F4009406D077FD08D00BD007FC05D0A1
:100CE0003EF4909581959F4F0895709561957F4F43
:100CF0000895AA1BBB1B51E107C0AA1FBB1FA61763
:100D0000B70710F0A61BB70B881F991F5A95A9F7B4
:0E0D100080959095BC01CD010895F894FFCF19
:080D1E0036002E002D00350007
:00000001FF
