:100000004BC00000A5C10000B2C10000D3C1000078
:10001000E2C10000EFC100005CC00000FFC10000B1
:1000200058C0000056C0000054C0000052C000007C
:1000300050C000004EC000004CC000004AC000008C
:1000400048C0000046C0000044C0000042C000009C
:1000500040C000003EC000003CC000003AC00000AC
:1000600038C0000036C0000034C0000032C00000BC
:1000700030C00000E2C100002CC000002AC0000017
:1000800028C0000026C0000024C0000022C00000DC
:1000900020C000001EC0000011241FBECFEFD0E220
:1000A000DEBFCDBF11E0A0E0B1E0E0EDF6E000E0A2
:1000B0000BBF02C007900D92A830B107D9F721E01D
:1000C000A8E0B1E001C01D92A131B207E1F7D8D09C
:1000D000FDC296CFE1E8F0E080818860808388EE01
:1000E00093E090938900809388001092850010928D
:1000F00084000895AC01E1E8F0E090819360908382
:10010000B19A20E030E005C0B19BFECFB19A2F5FDD
:100110003F4F241735071CF4B19BF6CFF7CFE1E82A
:10012000F0E08081887F80830895EF92FF920F93A3
:100130001F93CF93DF938C01EB0112B880910D01D7
:1001400081111DC0E12CF12CC70183709078992397
:1001500024F401978C6F9F6F0196880F991FFC0103
:10016000E050FF4F808182B98EE190E0C3DF8FEFD6
:10017000E81AF80A80910D01882331F302C0E12CBE
:10018000F12CF80111821082F1E0EF1AF10883E0FE
:10019000E82280E8F822FF2054F4E1E0EE1AF108AA
:1001A000FCEFEF2AFF24FA948FEFE81AF80AF70120
:1001B000EE0FFF1FE050FF4F80819181998388836C
:1001C000DF91CF911F910F91FF90EF900895BC01A7
:1001D00084B5836884BD85B5836085BD072E000C1A
:1001E000880B990B84D123E333E343E250E4E3D15A
:1001F00050D167BD85B1807F85B908958DB38F6576
:100200008DBBE9E6F0E0808183638083EAE6F0E07D
:100210008081806280830895EAE7F0E080818D68C4
:100220008083ECE7F0E08081816480838081817E3F
:1002300080830895262F30E040910801437050E0FC
:100240004217530781F045B1407F45B945B120952C
:10025000309523703327220F331F220F331F242B97
:1002600025B960930801BC01990F880B990B3FD108
:1002700023E333E343E250E49ED10BD167BD0895FD
:10028000CF93DF9300D000D0CDB7DEB71A821982AA
:100290008DE090E09C838B83F894E1E6F0E080E8C9
:1002A000808310828EE190E092DFA8DFB5DF12DF5D
:1002B0008FEF81B984B987B980EF8AB91DB810BAB8
:1002C000789410920D01BE016D5F7F4FCE010196B3
:1002D0002CDFEE9810920B0110920C011092090184
:1002E00061E08EE190E0A6DFEAE7F0E080818064E3
:1002F000808390E080910C0180910A01882301F1B4
:10030000292F30E040910F0150911001241735073B
:1003100030F480910F0190911001982F0FC04091FF
:100320000F01509110014430510540F440910F01EC
:10033000509110014217530708F490E010920A01FF
:1003400080910E01811110920E0180910901D2CF8E
:100350001F920F920FB60F9211248F9385B1807F59
:1003600085B98F910F900FBE0F901F9018951F9217
:100370000F920FB60F9211240BB60F928F93EF933B
:10038000FF93EAE7F0E080818064808380910C0134
:100390008F5F80930C0180910B018F5F80930B0125
:1003A000FF91EF918F910F900BBE0F900FBE0F90AA
:1003B0001F9018951F920F920FB60F9211248F93D2
:1003C00080910C01815080930C018F910F900FBE92
:1003D0000F901F9018951F920F920FB60F92112435
:1003E0008F9381E0809309018F910F900FBE0F9042
:1003F0001F9018951F920F920FB60F9211248F9392
:1004000081E080930E0180910B01815080930B015C
:100410008F910F900FBE0F901F9018951F920F9203
:100420000FB60F9211248F9381E080930D018F916D
:100430000F900FBE0F901F9018951F920F920FB63E
:100440000F9211242F933F938F939F938091780065
:1004500090E09093100180930F019091790020918A
:100460000F0130911001892F90E0982F8827820F7B
:10047000931F9093100180930F0181E080930A01F4
:100480009F918F913F912F910F900FBE0F901F90D2
:10049000189570D088F09F5790F0B92F9927B751D1
:1004A000A0F0D1F0660F771F881F991F1AF0BA9538
:1004B000C9F712C0B13081F077D0B1E0089574C0AF
:1004C000672F782F8827B85F39F0B93FCCF386952E
:1004D00077956795B395D9F73EF49095809570958B
:1004E00061957F4F8F4F9F4F0895E89409C097FB08
:1004F0003EF490958095709561957F4F8F4F9F4FFB
:100500009923A9F0F92F96E9BB279395F69587953E
:1005100077956795B795F111F8CFFAF4BB0F11F401
:1005200060FF1BC06F5F7F4F8F4F9F4F16C08823A8
:1005300011F096E911C0772321F09EE8872F762FDE
:1005400005C0662371F096E8862F70E060E02AF01F
:100550009A95660F771F881FDAF7880F969587950B
:1005600097F9089557FD9058440F551F59F05F3F74
:1005700071F04795880F97FB991F61F09F3F79F0C5
:1005800087950895121613061406551FF2CF469547
:10059000F1DF08C0161617061806991FF1CF8695C9
:1005A0007105610508940895E894BB2766277727AD
:1005B000CB0197F908950BD078C069D028F06ED0A0
:1005C00018F0952309F05AC05FC01124EECFCADF9E
:1005D000A0F3959FD1F3950F50E0551F629FF00156
:1005E000729FBB27F00DB11D639FAA27F00DB11DAF
:1005F000AA1F649F6627B00DA11D661F829F222738
:10060000B00DA11D621F739FB00DA11D621F839FBE
:10061000A00D611D221F749F3327A00D611D231F94
:10062000849F600D211D822F762F6A2F11249F57E2
:1006300050408AF0E1F088234AF0EE0FFF1FBB1F05
:10064000661F771F881F91505040A9F79E3F5105A4
:1006500070F014C0AACF5F3FECF3983EDCF38695B0
:1006600077956795B795F795E7959F5FC1F7FE2B4F
:10067000880F911D9695879597F9089597F99F672B
:1006800080E870E060E008959FEF80EC089500241A
:100690000A941616170618060906089500240A94E7
:1006A00012161306140605060895092E0394000C6D
:1006B00011F4882352F0BB0F40F4BF2B11F460FFFC
:1006C00004C06F5F7F4F8F4F9F4F0895F894FFCF07
:0806D00032001600290015009C
:00000001FF
