S01600005245464C454354495649544945532E73726563EC
S11300004BC0000059C0000057C00000E3C000000E
S113001053C0000051C000004FC0000007C10000E1
S11300204BC0000049C0000047C0000045C00000AC
S113003043C0000041C000003FC000003DC00000BC
S11300403BC0000039C0000037C0000035C00000CC
S113005033C0000031C000002FC000002DC00000DC
S11300602BC0000029C0000027C0000025C00000EC
S113007023C00000C8C000001FC000001DC0000055
S11300801BC0000019C0000017C0000015C000000C
S113009013C0000011C0000011241FBECFEFD0E236
S11300A0DEBFCDBF21E0A0E0B1E001C01D92A430CD
S11300B0B207E1F75DD0F3C1A3CFBC0184B5836877
S11300C084BD85B5826085BD072E000C880B990B15
S11300D0F7D023E333E343E250E456D1C3D067BD02
S11300E085B1807F85B90895EAE7F0E080818D6865
S11300F08083ECE7F0E08081816680838081817E6B
S113010080830895262F30E040910001437050E031
S11301104217530781F045B1407F45B945B1209559
S1130120309523703327220F331F220F331F242BC4
S113013025B960930001BC01990F880B990BC0D0BD
S113014023E333E343E250E41FD18CD067BD089529
S1130150E1E8F0E080818860808388EE93E090930A
S1130160890080938800109285001092840008957D
S1130170F894EEDF8EE190E0A0DFB6DF8FEF84B974
S113018087B980EF8AB910BA789485B1807F85B930
S113019061E08EE190E0B6DFEAE7F0E08081806420
S11301A0808320E0922F80910101882361F0809167
S11301B00301981740F49091030198B92093010129
S11301C080818064808380910201882361F320937D
S11301D00201E8CF1F920F920FB60F9211240BB6B3
S11301E00F928F93EF93FF93EAE7F0E080818064AE
S11301F08083FF91EF918F910F900BBE0F900FBEF4
S11302000F901F9018951F920F920FB60F92112402
S11302108F93809179008093030181E080930101A1
S11302208F910F900FBE0F901F9018951F920F92F1
S11302300FB60F9211248F939F9381E08093020154
S113024088EE93E00197F1F704C088EE93E00197FC
S1130250F1F76699FACF9F918F910F900FBE0F908F
S11302601F90189570D088F09F5790F0B92F992758
S1130270B751A0F0D1F0660F771F881F991F1AF0AD
S1130280BA95C9F712C0B13081F077D0B1E00895C2
S113029074C0672F782F8827B85F39F0B93FCCF343
S11302A0869577956795B395D9F73EF490958095A3
S11302B0709561957F4F8F4F9F4F0895E89409C0C3
S11302C097FB3EF490958095709561957F4F8F4F85
S11302D09F4F9923A9F0F92F96E9BB279395F6959B
S11302E0879577956795B795F111F8CFFAF4BB0F19
S11302F011F460FF1BC06F5F7F4F8F4F9F4F16C07D
S1130300882311F096E911C0772321F09EE8872F06
S1130310762F05C0662371F096E8862F70E060E0C2
S11303202AF09A95660F771F881FDAF7880F96953B
S1130330879597F9089557FD9058440F551F59F024
S11303405F3F71F04795880F97FB991F61F09F3FBE
S113035079F087950895121613061406551FF2CFE7
S11303604695F1DF08C0161617061806991FF1CF37
S113037086957105610508940895E894BB2766275E
S11303807727CB0197F908950BD078C069D028F06E
S11303906ED018F0952309F05AC05FC01124EECF37
S11303A0CADFA0F3959FD1F3950F50E0551F629FCC
S11303B0F001729FBB27F00DB11D639FAA27F00DBA
S11303C0B11DAA1F649F6627B00DA11D661F829FE1
S11303D02227B00DA11D621F739FB00DA11D621FC6
S11303E0839FA00D611D221F749F3327A00D611DE3
S11303F0231F849F600D211D822F762F6A2F1124C5
S11304009F5750408AF0E1F088234AF0EE0FFF1F17
S1130410BB1F661F771F881F91505040A9F79E3F4E
S1130420510570F014C0AACF5F3FECF3983EDCF3A3
S1130430869577956795B795F795E7959F5FC1F78B
S1130440FE2B880F911D9695879597F9089597F936
S11304509F6780E870E060E008959FEF80EC089566
S113046000240A941616170618060906089500248F
S11304700A9412161306140605060895092E039409
S1130480000C11F4882352F0BB0F40F4BF2B11F47D
S113049060FF04C06F5F7F4F8F4F9F4F0895F894A4
S10504A0FFCF88
S9030000FC
