:100000004BC0000059C0000057C0000062C1000092
:1000100053C0000051C000004FC0000095C1000057
:100020004BC0000049C0000047C0000045C00000B0
:1000300043C0000041C000003FC000003DC00000C0
:100040003BC0000039C0000037C0000035C00000D0
:1000500033C0000031C000002FC000002DC00000E0
:100060002BC0000029C0000027C0000025C00000F0
:1000700023C000003DC100001FC000001DC00000E3
:100080001BC0000019C0000017C0000015C0000010
:1000900013C0000011C0000011241FBECFEFD0E23A
:1000A000DEBFCDBF21E0A0E0B1E001C01D92A630CF
:1000B000B207E1F789D098C2A3CFBC0184B58368A9
:1000C00084BD85B5836085BD072E000C880B990B18
:1000D0009CD123E333E343E250E4FBD168D167BD15
:1000E00085B1807F85B908958DB384648DBBE9E6C1
:1000F000F0E0808180638083EAE6F0E080818062C6
:1001000080830895EAE7F0E080818D688083ECE7E2
:10011000F0E08081816480838081817E8083089586
:10012000262F30E040910001437050E04217530702
:1001300081F045B1407F45B945B120953095237098
:100140003327220F331F220F331F242B25B960932F
:100150000001BC01990F880B990B57D123E333E3BE
:1001600043E250E4B6D123D167BD0895E1E8F0E061
:1001700080818860808388EE93E0909389008093EB
:10018000880010928500109284000895AC01E1EB84
:10019000F0E09081936090831092B200B899B89A81
:1001A00020E030E005C0B89BFECFB89A2F5F3F4FEC
:1001B000241735071CF4B89BF6CFF7CFE1EBF0E03E
:1001C0008081887F80830895E1E6F0E080E8808385
:1001D0001082F894CBDF8EE190E06FDF85DF92DF55
:1001E0008FEF84B987B980EF8AB910BA789485B156
:1001F000807F85B98AEA88B980ED97E0C7DF18B8B3
:1002000080ED97E0C3DF62E088E290E089DF109242
:10021000030110920201109201018FEF93E0CAE7EF
:10022000D0E00FEF1FEFE02EF12E209101012223ED
:10023000C9F1209104013091050128173907D0F444
:10024000809104019091050188B99C0122273170A9
:100250003695279536952795369527952BB94BB129
:100260009C01222732703695279536952795242BA9
:100270002BB913C02091040130910501AC014E5CF3
:100280005F4F4217530748F481E29EE47FDF18B8BE
:100290008BB18F708BB98E2D9F2D1092010128810B
:1002A0002064288320910201222329F01092020168
:1002B00028812064288320910301222309F4B5CFEB
:1002C0001092030118B88BB18F708BB9802F912FCA
:1002D000ACCF1F920F920FB60F9211248F9381E033
:1002E000809302018F910F900FBE0F901F90189571
:1002F0001F920F920FB60F9211242F933F938F935B
:100300009F938091780090E0909305018093040181
:10031000909179002091040130910501892F90E09E
:10032000982F8827820F931F9093050180930401D3
:1003300081E0809301019F918F913F912F910F90C8
:100340000FBE0F901F9018951F920F920FB60F922D
:1003500011240BB60F922F933F934F935F936F939C
:100360007F938F939F93AF93BF93EF93FF9381E01E
:100370008093030189E190E009DF669B05C089E174
:1003800090E004DF6699FBCFFF91EF91BF91AF91B1
:100390009F918F917F916F915F914F913F912F919D
:1003A0000F900BBE0F900FBE0F901F90189570D03E
:1003B00088F09F5790F0B92F9927B751A0F0D1F04E
:1003C000660F771F881F991F1AF0BA95C9F712C0D8
:1003D000B13081F077D0B1E0089574C0672F782FE5
:1003E0008827B85F39F0B93FCCF386957795679544
:1003F000B395D9F73EF490958095709561957F4FB0
:100400008F4F9F4F0895E89409C097FB3EF4909555
:100410008095709561957F4F8F4F9F4F9923A9F0DD
:10042000F92F96E9BB279395F6958795779567956C
:10043000B795F111F8CFFAF4BB0F11F460FF1BC0B0
:100440006F5F7F4F8F4F9F4F16C0882311F096E943
:1004500011C0772321F09EE8872F762F05C06623F1
:1004600071F096E8862F70E060E02AF09A95660FAA
:10047000771F881FDAF7880F9695879597F9089563
:1004800057FD9058440F551F59F05F3F71F0479545
:10049000880F97FB991F61F09F3F79F0879508952A
:1004A000121613061406551FF2CF4695F1DF08C049
:1004B000161617061806991FF1CF86957105610566
:1004C00008940895E894BB2766277727CB0197F90E
:1004D00008950BD078C069D028F06ED018F095231D
:1004E00009F05AC05FC01124EECFCADFA0F3959F78
:1004F000D1F3950F50E0551F629FF001729FBB270B
:10050000F00DB11D639FAA27F00DB11DAA1F649FB6
:100510006627B00DA11D661F829F2227B00DA11D69
:10052000621F739FB00DA11D621F839FA00D611DEF
:10053000221F749F3327A00D611D231F849F600D10
:10054000211D822F762F6A2F11249F5750408AF049
:10055000E1F088234AF0EE0FFF1FBB1F661F771FD5
:10056000881F91505040A9F79E3F510570F014C06C
:10057000AACF5F3FECF3983EDCF3869577956795BD
:10058000B795F795E7959F5FC1F7FE2B880F911DF3
:100590009695879597F9089597F99F6780E870E099
:1005A00060E008959FEF80EC089500240A941616E9
:1005B000170618060906089500240A941216130651
:1005C000140605060895092E0394000C11F48823DF
:1005D00052F0BB0F40F4BF2B11F460FF04C06F5FFB
:0C05E0007F4F8F4F9F4F0895F894FFCF7E
:00000001FF
