:100000004BC0000066C0000064C0000062C0000079
:1000100060C000005EC000005CC0000045C200007F
:1000200058C0000056C0000054C0000052C000007C
:1000300050C000004EC000004CC000004AC000008C
:1000400048C0000046C0000044C0000042C000009C
:1000500040C000003EC000003CC000003AC00000AC
:1000600038C0000036C0000034C0000032C00000BC
:1000700030C000002EC000002CC000002AC00000CC
:1000800028C0000026C0000024C0000022C00000DC
:1000900020C000001EC0000011241FBECFEFD0E220
:1000A000DEBFCDBF11E0A0E0B1E0ECE1F5E000E0A3
:1000B0000BBF02C007900D92A830B107D9F721E01D
:1000C000A8E0B1E001C01D92AC30B207E1F750D119
:1000D00023C296CFAC01E1E8F0E090819860908374
:1000E00088EE93E0909389008093880010928500B9
:1000F00010928400EFE6F0E0908192609083B19AD4
:1001000020E030E005C0B19BFECFB19A2F5F3F4F9A
:10011000241735071CF4B19BF6CFF7CF08952F9223
:100120003F924F925F926F927F928F929F92AF9287
:10013000BF92CF92DF92EF92FF920F931F93CF93D4
:10014000DF9300D000D000D0CDB7DEB76C017A834A
:1001500069835C834B839E838D83992334F42227A8
:100160003327281B390B3E832D834D805E80EB8126
:10017000FC818081918120910001309101018217E1
:100180009307B9F020910201309103018217930780
:1001900091F020910401309105018217930769F0D5
:1001A00020910601309107018217930741F483E003
:1001B00007C080E005C081E003C082E001C080E0AC
:1001C0002D813E812031310538F436952795922FC7
:1001D00038E2232E221A04C098E06894222425F8DD
:1001E0001C141D0424F00D2D000F000B01C001E0B4
:1001F000A02EB12C3501680E711CED81FE81EF2B14
:10020000D9F1850143010F2EF8E23F2EF02DE92EA2
:10021000F12C2D813E81E216F30620F4231438F4EC
:100220003A940BC037E2331520F0339406C0322CD9
:1002300004C00F2EF8E23F2EF02DC4018370907899
:10024000992324F401978C6F9F6F0196880F991F53
:10025000FC01E050FF4F808182B9808188B9832DF5
:1002600090E038DF8D819E8101979E838D83800E83
:10027000911E892B71F602C0412C512C9201215004
:1002800031092A9DC0012B9D900D3A9D900D11249E
:10029000860D971D83709078992324F401978C6FB5
:1002A0009F6F0196880F991FFC01E050FF4F8081DE
:1002B0009181EB81FC8191838083E981FA81808146
:1002C00091818C0D9D1D68EC70E0FFD0918380833F
:1002D00082B18B7D82B926960FB6F894DEBF0FBE31
:1002E000CDBFDF91CF911F910F91FF90EF90DF90E5
:1002F000CF90BF90AF909F908F907F906F905F90C6
:100300004F903F902F900895EF92FF920F931F937D
:10031000CF93DF938C01EB01E12CF12CC7018370AB
:100320009078992324F401978C6F9F6F0196880F22
:10033000991FFC01E050FF4F808188B988E290E06E
:10034000C9DE8FEFE81AF80AE5E6EE16F10431F798
:10035000F80111821082809100019091010199832E
:100360008883DF91CF911F910F91FF90EF900895B7
:10037000CF93DF9300D000D0CDB7DEB71A821982B9
:100380008DE090E09C838B8310920901F8948FEFAD
:1003900081B987B91DB810BAE1E8F0E080818160C9
:1003A0008083BE016D5F7F4FCE010196ADDF88EE89
:1003B00093E090DE80EC88B988EE93E08BDE8B8151
:1003C00088B988EE93E086DE10920901EE24E3946A
:1003D000F12C00E010E0C701002E02C0880F991F29
:1003E0000A94E2F788B988EC90E074DE0F5F1F4F43
:1003F0000830110581F706E010E0C701002E02C0A9
:10040000880F991F0A94E2F788B988EC90E062DEC1
:100410000150110990F7AE014D5F5F4FBE016F5F54
:100420007F4F81E190E07BDE8CED95E053DEAE0105
:100430004D5F5F4FBE016F5F7F4F81E290E06FDEE7
:100440008CED95E047DEAE014D5F5F4FBE016F5F03
:100450007F4F84E690E063DE8CED95E03BDEAE01FD
:100460004D5F5F4FBE016F5F7F4F8CE99FEF57DE9F
:100470008CED95E02FDEAE014D5F5F4FBE016F5FEB
:100480007F4F8FED9FEF4BDE8CED95E023DEAE01CD
:100490004D5F5F4FBE016F5F7F4F8FEE9FEF3FDE7F
:1004A0008CED95E017DE95CF1F920F920FB60F924D
:1004B00011248F9381E08093090185E588B98F919C
:1004C0000F900FBE0F901F90189597FB072E16F4F4
:1004D000009406D077FD08D00BD007FC05D03EF481
:1004E000909581959F4F0895709561957F4F0895E0
:1004F000AA1BBB1B51E107C0AA1FBB1FA617B7074A
:1005000010F0A61BB70B881F991F5A95A9F7809565
:0C0510009095BC01CD010895F894FFCF38
:08051C003200160029000D0059
:00000001FF
