S01700004763634170706C69636174696F6E312E737265635B
S11300004BC0000070C2000064C000007BC200004E
S113001060C0000090C200005CC000005AC0000034
S113002058C0000056C0000054C0000052C0000078
S113003050C000004EC000004CC000004AC0000088
S113004048C0000046C0000044C0000042C0000098
S113005040C000003EC000003CC000003AC00000A8
S113006038C0000036C0000034C0000032C00000B8
S113007030C000006FC200002CC000002AC0000085
S113008028C0000026C0000024C0000022C00000D8
S113009020C000001EC0000011241FBECFEFD0E21C
S11300A0DEBFCDBF11E0A0E0B1E0E8E3F8E000E09E
S11300B00BBF02C007900D92A830B107D9F721E019
S11300C0A8E0B1E001C01D92AC30B207E1F790D1D5
S11300D0B1C396CFAC01E1E8F0E0908198609083E1
S11300E088EE93E0909389008093880010928500B5
S11300F010928400EFE6F0E0908192609083B19AD0
S113010020E030E005C0B19BFECFB19A2F5F3F4F96
S1130110241735071CF4B19BF6CFF7CF08952F921F
S11301203F924F925F926F927F928F929F92AF9283
S1130130BF92CF92DF92EF92FF920F931F93CF93D0
S1130140DF9300D000D0CDB7DEB74C018B015A83CA
S113015049837C01992324F4EE24FF24E81AF90A44
S11301606701E981FA8180819181209100013091B8
S113017001018217930781F020910201309103015C
S11301808217930759F020910401309105018217D9
S1130190930731F080E005C081E003C082E001C034
S11301A083E0F0E1EF16F10410F4212C03C068940D
S11301B0222421F8E114F10409F497C0270156948C
S11301C047940F2EF4E13F2EF02D1C821B82A82EA3
S11301D0B12C0F2EF8EC6F2E712CF02D222089F00B
S11301E0C7012B813C81821B930B099728F03CE0CB
S11301F03315B0F43A9427C083E18315B0F03394F7
S113020022C0EB81FC814E165F0628F0FCE0F3155A
S113021088F43A9418C023E1231588F0339413C06A
S11302200F2EFCE03F2EF02D0EC00F2EF4E13F2EDA
S1130230F02D09C00F2EFCE03F2EF02D04C00F2E30
S1130240F4E13F2EF02D18141904ECF48B819C81F9
S11302508A0D9B1D83709078992324F401978C6FE9
S11302609F6F0196880F991FFC01E050FF4F80811A
S113027082B9F80180819181019691838083832DD5
S113028090E028DF21C09920FCF48B819C818A0DA9
S11302909B1D91958195910983709078992324F4FD
S11302A001978C6F9F6F0196880F991FFC01E05096
S11302B0FF4F808182B9F8018081918101979183F8
S11302C08083832D90E006DFF80180819181B30162
S11302D08AD2918380832B813C812F5F3F4F3C8363
S11302E02B83C216D30609F079CF80B18F7390E0C7
S11302F0E981FA819183808382B18B7D82B90F90E9
S11303000F900F900F90DF91CF911F910F91FF905D
S1130310EF90DF90CF90BF90AF909F908F907F90A1
S11303206F905F904F903F902F900895CF92DF92FF
S1130330EF92FF920F931F93CF93DF936C017B0196
S1130340049B22C0C0E0D0E008EC10E09E012370C2
S11303503078332334F4215031092C6F3F6F2F5FF1
S11303603F4F220F331FF901E050FF4F808182B9C4
S1130370808188B984E190E0ADDECE010196B801B8
S113038032D2EC010499E2CFF6011182108280B1DD
S11303908F7390E0F70191838083DF91CF911F9158
S11303A00F91FF90EF90DF90CF900895BC0184B53A
S11303B0836884BD85B5826085BD072E000C880BDB
S11303C0990B22D123E333E343E250E481D1EED00D
S11303D067BD0895EAE7F0E080818D688083ECE7EB
S11303E0F0E08081816480838081817E80830895B0
S11303F0CF93DF9300D000D0CDB7DEB71A82198235
S11304008DE090E09C838B8310920901F8948EE137
S113041090E0CCDFDFDF8FEF81B984B987B980EF5B
S11304208AB91DB810BA7894E1E8F0E0808181605F
S11304308083EAE7F0E0808180648083BE016D5FA1
S11304407F4FCE01019672DF109209010AE710E096
S1130450AE014D5F5F4FBE016F5F7F4F81E190E062
S11304605EDEAE014D5F5F4FBE016F5F7F4F81E285
S113047090E055DEAE014D5F5F4FBE016F5F7F4F71
S113048084E690E04CDEAE014D5F5F4FBE016F5FCE
S11304907F4F8CE99FEF43DEAE014D5F5F4FBE019E
S11304A06F5F7F4F81E290E03ADEAE014D5F5F4FB8
S11304B0BE016F5F7F4F81E190E031DE80910801E2
S11304C0882309F4C5CF80910A0190910B01969578
S11304D08795969587951092080187BDF8018081CC
S11304E080648083B5CF1F920F920FB60F921124B0
S11304F08F9385B1837F85B98F910F900FBE0F9035
S11305001F9018951F920F920FB60F9211240BB6DD
S11305100F928F93EF93FF93EAE7F0E0808180647A
S11305208083FF91EF918F910F900BBE0F900FBEC0
S11305300F901F9018951F920F920FB60F921124CF
S11305408F9381E0809309018F910F900FBE0F90DC
S11305501F9018951F920F920FB60F9211242F938C
S11305603F938F939F938091780090E090930B0139
S113057080930A019091790020910A0130910B0136
S1130580892F90E0982F8827820F931F90930B0157
S113059080930A0181E0809308019F918F913F919C
S11305A02F910F900FBE0F901F90189570D088F068
S11305B09F5790F0B92F9927B751A0F0D1F0660F4B
S11305C0771F881F991F1AF0BA95C9F712C0B13066
S11305D081F077D0B1E0089574C0672F782F882711
S11305E0B85F39F0B93FCCF3869577956795B395A5
S11305F0D9F73EF490958095709561957F4F8F4F14
S11306009F4F0895E89409C097FB3EF49095809518
S1130610709561957F4F8F4F9F4F9923A9F0F92FC4
S113062096E9BB279395F695879577956795B79542
S1130630F111F8CFFAF4BB0F11F460FF1BC06F5F28
S11306407F4F8F4F9F4F16C0882311F096E911C03A
S1130650772321F09EE8872F762F05C0662371F05B
S113066096E8862F70E060E02AF09A95660F771F6F
S1130670881FDAF7880F9695879597F9089557FD9F
S11306809058440F551F59F05F3F71F04795880FFC
S113069097FB991F61F09F3F79F087950895121693
S11306A013061406551FF2CF4695F1DF08C016163F
S11306B017061806991FF1CF8695710561050894F0
S11306C00895E894BB2766277727CB0197F9089507
S11306D00BD078C069D028F06ED018F0952309F0BB
S11306E05AC05FC01124EECFCADFA0F3959FD1F3A7
S11306F0950F50E0551F629FF001729FBB27F00DCC
S1130700B11D639FAA27F00DB11DAA1F649F662720
S1130710B00DA11D661F829F2227B00DA11D621F6F
S1130720739FB00DA11D621F839FA00D611D221F29
S1130730749F3327A00D611D231F849F600D211D0D
S1130740822F762F6A2F11249F5750408AF0E1F0B0
S113075088234AF0EE0FFF1FBB1F661F771F881FF9
S113076091505040A9F79E3F510570F014C0AACF94
S11307705F3FECF3983EDCF3869577956795B795E4
S1130780F795E7959F5FC1F7FE2B880F911D96950E
S1130790879597F9089597F99F6780E870E060E07E
S11307A008959FEF80EC089500240A941616170606
S11307B018060906089500240A941216130614064E
S11307C005060895092E0394000C11F4882352F0B1
S11307D0BB0F40F4BF2B11F460FF04C06F5F7F4F69
S11307E08F4F9F4F089597FB072E16F4009406D061
S11307F077FD08D00BD007FC05D03EF49095819589
S11308009F4F0895709561957F4F0895AA1BBB1B58
S113081051E107C0AA1FBB1FA617B70710F0A61BFC
S1130820B70B881F991F5A95A9F780959095BC011D
S10B0830CD010895F894FFCFF7
S10B08383200160029000D0036
S9030000FC
