:10000000C9C200000C94B90B0C94C30B0C94CD0B1B
:100010000C94EE0B0C94350C0C94440CD9C20000DB
:10002000D7C200000C94530CD3C20000D1C2000010
:10003000CFC20000CDC20000CBC20000C9C2000088
:10004000C7C20000C5C20000C3C20000C1C2000098
:100050000C94720CBDC20000BBC20000B9C200000B
:10006000B7C20000B5C20000B3C20000B1C20000B8
:10007000AFC200000C94FD0BABC20000A9C200008F
:10008000A7C20000A5C20000A3C20000A1C20000D8
:100090009FC200009DC2000000000000003E5B4FB8
:1000A0005B3E3E6B4F6B3E1C3E7C3E1C183C7E3CD8
:1000B000181C577D571C1C5E7F5E1C00183C1800E6
:1000C000FFE7C3E7FF0018241800FFE7DBE7FF3076
:1000D000483A060E2629792926407F050507407FE4
:1000E00005253F5A3CE73C5A7F3E1C1C08081C1C57
:1000F0003E7F14227F22145F5F005F5F06097F014D
:100100007F006689956A606060606094A2FFA29437
:1001100008047E040810207E201008082A1C080805
:100120001C2A08081E101010100C1E0C1E0C303853
:100130003E3830060E3E0E06000000000000005F54
:1001400000000007000700147F147F14242A7F2A70
:100150001223130864623649562050000807030032
:10016000001C2241000041221C002A1C7F1C2A087E
:10017000083E0808008070300008080808080000E1
:1001800060600020100804023E5149453E00427F55
:10019000400072494949462141494D331814127FA4
:1001A0001027454545393C4A494931412111090744
:1001B0003649494936464949291E000014000000C5
:1001C0004034000000081422411414141414004197
:1001D00022140802015909063E415D594E7C121154
:1001E000127C7F494949363E414141227F4141418C
:1001F0003E7F494949417F090909013E4141517307
:100200007F0808087F00417F41002040413F017F77
:10021000081422417F404040407F021C027F7F043F
:1002200008107F3E4141413E7F090909063E415188
:10023000215E7F09192946264949493203017F0178
:10024000033F4040403F1F2040201F3F4038403F79
:10025000631408146303047804036159494D43008F
:100260007F4141410204081020004141417F0402C6
:10027000010204404040404000030708002054545D
:1002800078407F284444383844444428384444283B
:100290007F385454541800087E090218A4A49C788E
:1002A0007F0804047800447D40002040403D007FEA
:1002B0001028440000417F40007C047804787C08CA
:1002C0000404783844444438FC182424181824249E
:1002D00018FC7C08040408485454542404043F4483
:1002E000243C4040207C1C2040201C3C4030403CB2
:1002F00044281028444C9090907C4464544C440012
:100300000836410000007700000041360800020175
:100310000204023C2623263C1EA1A161123A404061
:10032000207A3854545559215555794122545478DE
:1003300042215554784020545579400C1E52721277
:100340003955555559395454545939555454580000
:1003500000457C410002457D420001457C407D1204
:1003600011127DF0282528F07C5455450020545466
:100370007C547C0A097F4932494949323A44444411
:100380003A324A4848303A4141217A3A424020784C
:10039000009DA0A07D3D4242423D3D4040403D3C4D
:1003A00024FF2424487E4943662B2FFC2F2BFF0972
:1003B00029F620C0887E0903205454794100004466
:1003C0007D413048484A32384040227A007A0A0A51
:1003D000727D0D19317D2629292F282629292926C4
:1003E00030484D4020380808080808080808382F09
:1003F00010C8ACBA2F102834FA00007B0000081493
:100400002A142222142A1408AA005500AAAA55AABE
:1004100055AA000000FF00101010FF00141414FF74
:10042000001010FF00FF1010F010F0141414FC0066
:100430001414F700FF0000FF00FF1414F404FC1470
:100440001417101F10101F101F1414141F00101069
:1004500010F0000000001F101010101F10101010DE
:10046000F010000000FF101010101010101010FFFE
:1004700010000000FF140000FF00FF00001F101715
:100480000000FC04F414141710171414F404F400FE
:1004900000FF00F714141414141414F700F71414C4
:1004A00014171410101F101F141414F4141010F04B
:1004B00010F000001F101F0000001F14000000FCBF
:1004C000140000F010F01010FF10FF141414FF14AB
:1004D0001010101F00000000F010FFFFFFFFFFF0E2
:1004E000F0F0F0F0FFFFFF0000000000FFFF0F0F33
:1004F0000F0F0F3844443844FC4A4A4A347E020203
:100500000606027E027E0263554941633844443C3C
:1005100004407E201E2006027E020299A5E7A599CE
:100520001C2A492A1C4C7201724C304A4D4D303005
:1005300048784830BC625A463D3E494949007E01F0
:1005400001017E2A2A2A2A2A44445F444440514A0F
:10055000444040444A51400000FF0103E080FF0056
:100560000008086B6B083612362436060F090F0692
:10057000000018180000001010003040FF010100BA
:100580001F01011E00191D1712003C3C3C3C0000DD
:100590000000000011241FBECFEFD0E2DEBFCDBFB0
:1005A00011E0A0E0B1E0EEEFF2E200E00BBF02C02C
:1005B00007900D92A83AB107D9F726E0A8EAB1E072
:1005C00001C01D92A434B207E1F74ED50C947D1101
:1005D00017CD8823D4F06034C0F4962F9695969565
:1005E0009695E82FF0E080E8989FE00DF11D11242A
:1005F000E855FE4F677081E090E002C0880F991FB8
:100600006A95E2F79081892B808308951F93CF9399
:10061000DF93442351F0C62F182FD42FD60F6C2F01
:10062000812FD7DFCF5FCD13FACFDF91CF911F910D
:1006300008950F931F93CF93DF93442379F0162FE0
:10064000C82FD42FD80F01E0060F612F8C2FC1DFE8
:10065000602F8C2FBEDFCF5FCD13F7CFDF91CF910F
:100660001F910F910895EF92FF920F931F93CF93D5
:10067000DF93D82FC62F042FE22E142F181B1F5FD5
:10068000F22EF61A412FD5DF412F6E2D8D2FD1DF9F
:100690004F2D6C2F8D2FBADF4F2D6C2F802FB6DF93
:1006A000DF91CF911F910F91FF90EF9008959F924E
:1006B000AF92BF92CF92DF92EF92FF920F931F9370
:1006C000CF93DF93962E011102C0CDDF22C0261BEF
:1006D0004F5F481BC42ED12C1C141D048CF019C074
:1006E000612F802F76DF21961F5FEC16FD06C4F781
:1006F0008FEFA81AB80A0F5FAC14BD0431F409C01B
:10070000082FA12CB12CE22EF12C192DC0E0D0E045
:10071000E7CFDF91CF911F910F91FF90EF90DF9086
:10072000CF90BF90AF909F900895E8EAF1E088EAFB
:1007300095E01192E817F907E1F7089588EA91E04A
:100740000C94300D08952F923F924F925F926F92CA
:100750007F928F929F92AF92BF92CF92DF92EF9251
:10076000FF920F931F93CF93DF93562E59014801A9
:10077000DE2D382E4E2C480E50E06A01CC0CDD1CCC
:10078000CC0CDD1C4C0D5D1D9A0128563F4F6901B4
:10079000682E212C6894772473F8760E35E02316A2
:1007A00091F1F601149130C010FF0DC0D13021F449
:1007B0006C2F832D0EDF16C001E02E2D442D6F2DE2
:1007C000862D75DF0FC08A149B0461F0D13021F4AF
:1007D0006C2F832DFEDE06C001E02E2D442D6F2DE3
:1007E000862D65DF1695FD0EED0ECF5FC711DCCFB0
:1007F00023946D0E4D0E3394FFEFCF1ADF0A26E0DF
:100800002212CCCF06C010E0C52DE52CED0EF52C44
:10081000CBCFDF91CF911F910F91FF90EF90DF90A1
:10082000CF90BF90AF909F908F907F906F905F9090
:100830004F903F902F900895AF92BF92CF92DF924A
:10084000EF920F931F93CF935B01FA01C82F408162
:100850004423A9F06F018FEFC81AD80A6894EE24D8
:10086000E1F800E010E020E030E0B5018C2F90E0EE
:100870006ADFC45FF60141916F014111EFCFCF9163
:100880001F910F91EF90DF90CF90BF90AF900895A0
:10089000AF92BF92CF92DF92EF92FF920F931F938E
:1008A000CF93DF93CDB7DEB76C015B01EDB6FEB63B
:1008B0004A3051054CF04436510544F0483E23E09F
:1008C000520734F087E005C082E003C083E001C036
:1008D00084E02DB73EB7281B31090FB6F8943EBF10
:1008E0000FBE2DBF0DB71EB70F5F1F4F5F934F9306
:1008F00082E191E09F938F931F930F930E94A20E2A
:10090000402F512FB501C60197DF0F900F900F9028
:100910000F900F900F900FB6F894FEBE0FBEEDBE75
:10092000DF91CF911F910F91FF90EF90DF90CF90CB
:10093000BF90AF900895F9DE45E151E068E170E0C5
:1009400080E090E079DFFACE0895EFDE40E251E0FA
:1009500068E170E088E190E06FDFF0CE0895FF92EB
:100960000F931F93CF93DF93C82FF62E142FD22F00
:10097000DCDE42E16EEF8CE049DE42E16EEF8BE0BF
:1009800045DE48E251E060E070E08FE090E054DF47
:100990004AE251E060E070E081E290E04DDF4CE23D
:1009A00051E060E070E083E390E046DF4EE251E02A
:1009B00060E070E083E490E03FDF40E351E060E01E
:1009C00070E085E590E038DF42E351E060E070E000
:1009D00087E690E031DF42E16EEF84E717DE42E127
:1009E0006EEF85E713DE44E351E060E170E080E004
:1009F00090E022DF4F2D50E060E170E085E290E072
:100A000047DF48E351E060E170E080E490E014DF0C
:100A1000412F50E060E170E085E690E039DF4CE383
:100A200051E060E270E080E090E006DF4D2F50E0A2
:100A300060E270E085E290E02BDF40E451E060E2AC
:100A400070E080E490E0F8DE402F50E060E270E07B
:100A500085E690E01DDF44E451E060E370E080E073
:100A600090E0EADE4C2F50E060E370E08FE290E02F
:100A70000FDF64DEDF91CF911F910F91FF900895FA
:100A800045E551E060E070E08CE090E0D5DE40E2CA
:100A900064E189E0BBDD49E451E064E170E08CE0B1
:100AA00090E0CADE40E264E185E2B0DD4CE451E072
:100AB00064E170E088E290E0BFDE40E264E181E45E
:100AC000A5DD4FE451E064E170E084E490E0B4DE41
:100AD00040E264E18DE59ADD42E551E064E170E0D9
:100AE00080E690E0A9DE40E264E189E78FCD0895D9
:100AF000833031F128F4813049F08230A1F008953B
:100B0000843059F1853009F435C0089547E166E233
:100B10008CE08FDD47E168E28CE08BDD47E16AE243
:100B20008CE087CD089547E166E288E282DD47E107
:100B300068E288E27EDD47E16AE288E27ACD0895E4
:100B400047E166E284E475DD47E168E284E471DD53
:100B500047E16AE284E46DCD089547E166E280E60C
:100B600068DD47E168E280E664DD47E16AE280E64D
:100B700060CD08954EE66CE38CE05BDD4EE66CE301
:100B80008CE057DD4EE66CE38CE053CD0895CF93B7
:100B9000DF93EC01CADD4FE551E060E270E085E0F3
:100BA00090E04ADEAE0160E270E080E590E070DE49
:100BB000C5DDDF91CF910895CF93DF93EC01B5DDD3
:100BC00046E651E060E270E085E090E035DEAE019F
:100BD00060E270E080E590E05BDEB0DDDF91CF9118
:100BE0000895CF93DF93EC01A0DD4DE651E060E284
:100BF00070E085E090E020DEAE0160E270E080E52C
:100C000090E046DE9BDDDF91CF910895CF93DF9397
:100C1000EC018BDD43E751E060E270E085E090E0BD
:100C20000BDEAE0160E270E080E590E031DE86DD53
:100C3000DF91CF910895EF92FF920F931F93CF937F
:100C4000DF937C018B01EA0170DD4AE751E060E04F
:100C500070E085E090E0F0DDA70160E070E080E505
:100C600090E016DE40E851E060E170E085E090E061
:100C7000E3DDA80160E170E080E590E009DE45E891
:100C800051E060E270E085E090E0D6DDAE0160E228
:100C900070E080E590E0FCDD51DDDF91CF911F91A8
:100CA0000F91FF90EF9008951092B90080E2809329
:100CB000B800089594EA9093BC00ECEBF0E09081CA
:100CC0009923ECF79091B900987F983011F090310A
:100CD000A1F48093BB0084E88093BC00ECEBF0E0CF
:100CE00080818823ECF79091B900987F983139F092
:100CF00081E0903429F480E0089581E0089580E057
:100D000008958093BB0084E88093BC00ECEBF0E096
:100D100080818823ECF79091B900987F81E0983228
:100D200009F480E0089584E98093BC00ECEBF0E0E6
:100D3000808184FDFDCF089510928000EFE6F0E001
:100D4000808181608083089514BC089525B5226058
:100D500025BD16BCA89B17C0A89A15C0A89BFECF9E
:100D6000A89A2F5F3F4F281739071CF4A89BF6CF8E
:100D7000F7CF4150510919F020E030E0F4CF85B5AC
:100D8000887F85BD089544E050E0F6CF1092900032
:100D90000895AF92BF92CF92DF92EF92FF921F938E
:100DA000CF93DF936B01DA01ED91FC91EC01992374
:100DB00024F4CC27DD27C81BD90B5E0118161906B1
:100DC0003CF0E92EEE0CEE080E2C000CFF0803C0E0
:100DD000EE24E394F12CEE0DFF1DE430F10539F023
:100DE000EF3FBFEFFB0729F4E3E0F0E002C0E0E0F3
:100DF000F0E025B5226025BD16BCA899A89ADF01B0
:100E0000AA0FBB1FA65FBE4F2C9122B9C2E0AC1641
:100E1000B10408F43FC01FE0A2E0B0E095012A1B36
:100E20003B0B2A30310520F0183030F0115007C04C
:100E30001F3020F41F5F03C017E001C01FE0EE0D5C
:100E4000FF1DE430F10539F0EF3FDFEFFD0729F436
:100E5000E3E0F0E002C0E0E0F0E0212F30E0220F1C
:100E6000331F220F331F60E070E005C0A89B03C052
:100E7000A89A6F5F7F4F62177307C4F39F01220F19
:100E8000331F265F3E4FE901288122B91196AA1629
:100E9000BB0620F625B5287F25BDDA01ED93FC932E
:100EA000E60128813981F901E81BF90BCF0168ECD3
:100EB00070E021D799838883DF91CF911F91FF90B4
:100EC000EF90DF90CF90BF90AF900895EF92FF9298
:100ED0000F931F93CF93DF938C017B0112B8C0E077
:100EE000D0E010C0FE01EE0FFF1FE65FFE4F8081D5
:100EF00082B98EE190E02ADF2196C430D10511F449
:100F0000C0E0D0E00799EECFC430D105A9F1CF3FC2
:100F10008FEFD80741F1FE01EE0FFF1FE65FFE4F96
:100F2000808182B98EE190E011DF2196C430D10535
:100F300039F0CF3FEFEFDE0729F4C3E0D0E002C085
:100F4000C0E0D0E0FE01EE0FFF1FE65FFE4F8081A4
:100F500082B98EE190E0FADEF701D183C083F80117
:100F60001182108212C08091100182B98EE190E04E
:100F7000EDDEC0E0D0E0E6CF80910A0182B98EE1DB
:100F800090E0E4DEC1E0D0E0DDCFDF91CF911F91B2
:100F90000F91FF90EF900895BC01E0EBF0E08081AD
:100FA00083688083E1EBF0E0808184608083072E9A
:100FB000000C880B990BB0D523E333E343E250E4F4
:100FC0000FD67CD56093B3008EB1807F8EB9089523
:100FD0008DB38C638DBBE9E6F0E08081806B80830C
:100FE000EAE6F0E080818A608083E8E6F0E08081D4
:100FF00081608083EBE6F0E080818E6E80830895CF
:10100000EAE7F0E080818D688083ECE7F0E08081A2
:10101000816480838081817E80830895262F30E0E3
:101020004091A805437050E04217530781F04EB13C
:10103000407F4EB94EB12095309523703327220F53
:10104000331F220F331F242B2EB96093A805BC0138
:10105000990F880B990B60D523E333E343E250E407
:10106000BFD52CD567BD0895CF93DF93CDB7DEB73D
:10107000A2970FB6F894DEBF0FBECDBFE1E6F0E059
:1010800080E8808310821A8219821C821B8210E100
:10109000FE013596DF01212F1D922A95E9F7F8947C
:1010A00083E290E079DF94DFABDFFEDDA6D43DDBA9
:1010B00045DB41DC49DE40DE69DE8FE381B914B9EE
:1010C0008FEF87B983EF8AB91FE01DB910BA85B1D8
:1010D0008E6E85B98EB180638EB9789410923C067D
:1010E00010923B0610923206109231061092420680
:1010F0001092410610923506109234061092430663
:1011000010923306109240061092AE0510923806E7
:1011100010923D068AEA88B980ED97E017DE18B98B
:1011200080ED97E013DEBE016D5F7F4FCE0101962B
:10113000CDDE62E083E290E071DF512C8FEF9FEF14
:101140009AA389A3AFEFBFEFB8A3AF8FE12CF12C27
:10115000188EA12C1F8A412C0F2EF2E32F2E312C3A
:10116000F02D0F2EF1E96F2E712CF02D0F2EF4E9DA
:101170008F2E912CF02DFE017596FE8BED8B8091BC
:10118000AE05811106C0E1DB85E588B9729A10923F
:10119000AF0506E910E0BB24B39437C18091330654
:1011A000882309F47BC01092330680913E0690910B
:1011B0003F069093370680933606809136069091CD
:1011C000370688B98BB18F708BB9809136069091B4
:1011D00037062BB1882793709695879596958795B6
:1011E00096958795822B8BB92091360630913706DC
:1011F00080910201909103012817390758F4E0917A
:101200003106F0913206EE0FFF1FE055FA4F1183C1
:10121000008338C020913606309137068091000156
:10122000909101012817390758F4E0913106F091A7
:101230003206EE0FFF1FE055FA4F3182208222C0A6
:101240002091360630913706809104019091050176
:101250002817390768F4E0913106F0913206EE0F55
:10126000FF1FE055FA4F24E630E0318320830AC0A7
:10127000E0913106F0913206EE0FFF1FE055FA4F74
:1012800011821082809131069091320601969093DE
:101290003206809331063FEFE31AF30A809143064A
:1012A000882309F453C0E0913406F0913506EE0F1F
:1012B000FF1FE055FA4FC080D18089819A818C1937
:1012C0009D09E1F02EB1207F2EB99C01992324F4D1
:1012D00022273327281B390B253631053CF099236B
:1012E0001CF488539F4F02C0885C9109AE014D5F8A
:1012F0005F4FBE016F5F7F4F4CDD729AC114D10406
:1013000011F4439415C082E3C816D10411F4A394D8
:101310000FC094E6C916D10421F4AF89AF5FAF8B3B
:1013200007C0B6E9CB16D10419F4E88DEF5FE88F5A
:10133000F1E0EF1AF108809134069091350601969C
:1013400090933506809334061092430680914106AF
:10135000909142068F73992790934206809341069D
:1013600080913106909132068F73992790933206BF
:101370008093310680913B0690913C068F739927AC
:1013800090933C0680933B068091340690913506FD
:101390008F73992790933506809334068091400689
:1013A000882381F051100EC0D3018C9185608C93FD
:1013B000F4011182108288B1806F88B9C09BC6C1C8
:1013C000C09AC4C1E114F10409F4C5C1F1E05F128F
:1013D00006C0C09AD40111961C921E925B2CC09B31
:1013E00014C01E141F048CF0F3018081887F808359
:1013F000D40111961C921E92C09AB092AE0588B18B
:101400008F6088B910924006512C8091AE058823D8
:1014100009F4C4CE8091AE05813061F48EB1807F35
:101420008EB90A2D288D4F89642D8E2D98DA81E092
:101430008093AF058091AE05823061F476D94AE899
:1014400051E060E170E08CE090E0F6D977D981E07E
:101450008093AE058091AE05833069F581E080937D
:10146000AF0563D90DDB8091090142DB67D980911B
:10147000AC05882371F01092AC05809109018F5F53
:101480008093090180910901863018F081E08093F2
:1014900009018091AB05882371F01092AB05809112
:1014A000090181508093090180910901811103C0D4
:1014B00085E0809309018091AE05843009F0A9C0D0
:1014C00080910901833009F457C028F4813051F02C
:1014D000823069F19EC0843009F473C0853009F40C
:1014E00095C097C08091A905813061F41092A9053B
:1014F00080910601909107010196909307018093D6
:1015000006010FC08091AA05813059F41092AA05F6
:1015100080910601909107010197909307018093B4
:101520000601809106019091070131DB72C0809124
:10153000A905813061F41092A90580910401909170
:101540000501019690930501809304010FC08091DD
:10155000AA05813059F41092AA0580910401909156
:101560000501019790930501809304018091040186
:101570009091050121DB4DC08091A905813061F476
:101580001092A90580910201909103010196909318
:101590000301809302010FC08091AA05813059F4A4
:1015A0001092AA05809102019091030101979093F6
:1015B000030180930201809102019091030111DBEC
:1015C00028C08091A905813061F41092A90580910D
:1015D0000001909101010196909301018093000117
:1015E0000FC08091AA05813059F41092AA0580910C
:1015F00000019091010101979093010180930001F6
:10160000809100019091010101DB03C085E080938E
:10161000AE058091AE05853009F0B1CD729A18B84B
:101620008E010B5F1F4F1E8F0D8F1C8E1B8EB12CDA
:10163000CC24C394D12C1A8F098F1B2D65C08091A7
:101640003306882309F460C01092330680913E0669
:1016500090913F0690933706809336068091360628
:1016600090913706ED8DFE8D81939193FE8FED8FD6
:1016700011110CC020913606309137063AA329A3E8
:10168000809136069091370698A38F8F8091360609
:1016900090913706AF8DB8A18A179B0730F4E0917F
:1016A0003606F0913706F8A3EF8F809136069091B9
:1016B000370629A13AA12817390730F48091360658
:1016C000909137069AA389A31F5F113081F42DD81A
:1016D00044E951E060E170E080E090E0ADD84FE98E
:1016E00051E060E270E080E090E0A6D827D8C60123
:1016F0000B8C02C0880F991F0A94E2F788B9AB8D52
:10170000BC8D1196BC8FAB8F8091AE05853031F5C5
:10171000183009F094CF098D1A8D40E050E0F8019F
:10172000819191918F01480F591F2D893E892E1764
:101730003F07A9F75695479556954795569547956E
:101740006F8D78A189A19AA176DA19CDE114F104FF
:1017500009F03FCE0AC0C09B58CE46CEB12E098DAF
:101760001A8D38E0B3120BCDD8CFC0993DCE5B2C8B
:101770004CCE1F920F920FB60F9211240F900FBEF6
:101780000F901F9018951F920F920FB60F92112471
:101790000F900FBE0F901F9018951F920F920FB6CB
:1017A0000F9211240BB60F928F939F93EF93FF9399
:1017B0008FEF9FEF90933F0680933E06EAE7F0E0BD
:1017C000808180648083FF91EF919F918F910F9032
:1017D0000BBE0F900FBE0F901F9018951F920F9287
:1017E0000FB60F9211248F9381E0809343068F915F
:1017F0000F900FBE0F901F9018951F920F920FB66B
:101800000F9211240BB60F922F933F938F939F93B8
:10181000EF93FF93209178003091790080913E06FC
:1018200090913F062817390740F4809178009091F5
:10183000790090933F0680933E064A9B06C0EAE7F4
:10184000F0E080818064808303C081E08093330670
:10185000FF91EF919F918F913F912F910F900BBE30
:101860000F900FBE0F901F9018951F920F920FB6FA
:101870000F9211248F9381E08093AC058F910F908C
:101880000FBE0F901F9018951F920F920FB60F92D8
:1018900011248F9381E08093AA058F910F900FBE42
:1018A0000F901F9018951F920F920FB60F92112450
:1018B0000BB60F928F93EF93FF93E1E8F0E08081F6
:1018C000816080831092850010928400B099B09A54
:1018D000FF91EF918F910F900BBE0F900FBE0F9065
:1018E0001F9018951F920F920FB60F9211240BB6EE
:1018F0000F928F939F93EF93FF93E1E8F0E0808145
:10190000887F808393B18091080189278093300676
:1019100083B18093080180913D068F5F80933D06DF
:1019200080913D06817080933D068091300688232A
:101930003CF480913D06882319F081E08093A9054D
:101940008091300686FF07C080913D06882319F0FC
:1019500081E08093AB058091300685FF0BC08091BC
:101960003D06882339F08091AE05833019F484E078
:101970008093AE058091300683FF07C080913D06BD
:10198000882319F083E08093AE058091300682FFB2
:1019900009C080913D06882329F081E08093AD0540
:1019A000809340068091300681FF11C080913D06F2
:1019B000882369F08091AF05811103C081E0809395
:1019C000AE058091AF05813011F41092AE05FF9104
:1019D000EF919F918F910F900BBE0F900FBE0F90C4
:1019E0001F901895CF93C82F88E764D980E089D9D4
:1019F0008C2F87D998D9CF9108958EEAF3DF85EDA2
:101A0000F1DF80E8EFDF88EAEDDF8FE3EBDF83EDE6
:101A1000E9DF80E0E7DF80E4E5DF8DE8E3DF84E114
:101A2000E1DF80E2DFDF80E0DDDF81EADBDF88EC21
:101A3000D9DF8AEDD7DF82E1D5DF81E8D3DF8FEC14
:101A4000D1DF89EDCFDF81EFCDDF8BEDCBDF80E420
:101A5000C9DF84EAC7DF86EAC5DF8FEAC3CF08950E
:101A6000EF92FF920F931F93CF93DF937C0181E25C
:101A7000B9DF80E0B7DF8FE7B5DF82E2B3DF80E078
:101A8000B1DF87E0AFDFE7018CEFF81A88E712D902
:101A900080E437D98E01005F1F4F899132D9C0177A
:101AA000D107D9F740D9E8010E151F0579F7DF9165
:101AB000CF911F910F91FF90EF90089570D088F013
:101AC0009F5790F0B92F9927B751A0F0D1F0660F2A
:101AD000771F881F991F1AF0BA95C9F712C0B13045
:101AE00081F077D0B1E0089574C0672F782F8827F0
:101AF000B85F39F0B93FCCF3869577956795B39584
:101B0000D9F73EF490958095709561957F4F8F4FF2
:101B10009F4F0895E89409C097FB3EF490958095F7
:101B2000709561957F4F8F4F9F4F9923A9F0F92FA3
:101B300096E9BB279395F695879577956795B79521
:101B4000F111F8CFFAF4BB0F11F460FF1BC06F5F07
:101B50007F4F8F4F9F4F16C0882311F096E911C019
:101B6000772321F09EE8872F762F05C0662371F03A
:101B700096E8862F70E060E02AF09A95660F771F4E
:101B8000881FDAF7880F9695879597F9089557FD7E
:101B90009058440F551F59F05F3F71F04795880FDB
:101BA00097FB991F61F09F3F79F087950895121672
:101BB00013061406551FF2CF4695F1DF08C016161E
:101BC00017061806991FF1CF8695710561050894CF
:101BD0000895E894BB2766277727CB0197F90895E6
:101BE0000BD078C069D028F06ED018F0952309F09A
:101BF0005AC05FC01124EECFCADFA0F3959FD1F386
:101C0000950F50E0551F629FF001729FBB27F00DAA
:101C1000B11D639FAA27F00DB11DAA1F649F6627FF
:101C2000B00DA11D661F829F2227B00DA11D621F4E
:101C3000739FB00DA11D621F839FA00D611D221F08
:101C4000749F3327A00D611D231F849F600D211DEC
:101C5000822F762F6A2F11249F5750408AF0E1F08F
:101C600088234AF0EE0FFF1FBB1F661F771F881FD8
:101C700091505040A9F79E3F510570F014C0AACF73
:101C80005F3FECF3983EDCF3869577956795B795C3
:101C9000F795E7959F5FC1F7FE2B880F911D9695ED
:101CA000879597F9089597F99F6780E870E060E05D
:101CB00008959FEF80EC089500240A9416161706E5
:101CC00018060906089500240A941216130614062D
:101CD00005060895092E0394000C11F4882352F090
:101CE000BB0F40F4BF2B11F460FF04C06F5F7F4F48
:101CF0008F4F9F4F089597FB072E16F4009406D040
:101D000077FD08D00BD007FC05D03EF49095819567
:101D10009F4F0895709561957F4F0895AA1BBB1B37
:101D200051E107C0AA1FBB1FA617B70710F0A61BDB
:101D3000B70B881F991F5A95A9F780959095BC01FC
:101D4000CD0108950F931F93CF93DF93CDB7DEB7E7
:101D50002E970FB6F894DEBF0FBECDBF0D891E893A
:101D600086E08C831A8309838FEF9FE79E838D83A0
:101D7000AE01475E5F4F6F89788DCE01019610D01E
:101D8000EF81F885E00FF11F10822E960FB6F894C0
:101D9000DEBF0FBECDBFDF91CF911F910F91089590
:101DA0002F923F924F925F926F927F928F929F926B
:101DB000AF92BF92CF92DF92EF92FF920F931F9359
:101DC000CF93DF93CDB7DEB72B970FB6F894DEBF76
:101DD0000FBECDBF6C017B018A01FC011782168208
:101DE000838181FFBFC1CE0101963C01F601938141
:101DF000F70193FD859193FF81917F01882309F479
:101E0000ADC1853239F493FD859193FF81917F01B6
:101E1000853221F4B60190E0D6D1E8CF912C212C67
:101E2000312CFFE1F315D8F08B3279F038F48032A1
:101E300079F08332A1F4232D20611DC08D3261F031
:101E4000803369F4232D216016C0832D8260382EE3
:101E5000E32DE4603E2E2AC0F32DF8601DC037FC50
:101E60002DC020ED280F2A3040F08E32B9F436FC18
:101E700075C1232D2064322E19C036FE06C08AE0BB
:101E8000989E200D1124922E11C0EAE02E9E200D66
:101E90001124222EF32DF0623F2E08C08C3621F43F
:101EA000832D8068382E02C0883641F4F70193FDF7
:101EB000859193FF81917F018111B3CF982F9F7DF1
:101EC0009554933028F40C5F1F4F9FE399830DC006
:101ED000833631F0833771F0833509F055C020C067
:101EE000F801808189830E5F1F4F88248394912C91
:101EF000530112C02801F2E04F0E511CF801A080DE
:101F0000B18036FE03C0692D70E002C06FEF7FEF35
:101F1000C5014ED14C018201F32DFF773F2E15C034
:101F2000280122E0420E511CF801A080B18036FE4B
:101F300003C0692D70E002C06FEF7FEFC5012DD1A6
:101F40004C01F32DF0683F2E820133FC19C0822D25
:101F500090E088169906A0F4B60180E290E033D1B3
:101F60002A94F5CFF50137FC859137FE81915F0109
:101F7000B60190E028D121102A9421E0821A91081C
:101F80008114910479F7E1C0843611F0893639F56E
:101F9000F80137FE07C060817181828193810C5FF7
:101FA0001F4F08C060817181072E000C880B990BB0
:101FB0000E5F1F4FF32DFF763F2E97FF09C09095C0
:101FC0008095709561957F4F8F4F9F4FF0683F2EA2
:101FD0002AE030E0A30133D1882E861844C085372B
:101FE00031F4232D2F7EB22E2AE030E025C0932D30
:101FF000997FB92E8F36C1F018F4883579F0AEC0CC
:10200000803719F0883721F0A9C0E92FE061BE2E92
:10201000B4FE0DC0FB2DF460BF2E09C034FE0AC013
:10202000292F2660B22E06C028E030E005C020E14E
:1020300030E002C020E132E0F801B7FE07C0608165
:102040007181828193810C5F1F4F06C06081718115
:1020500080E090E00E5F1F4FA301F1D0882E86181C
:10206000FB2DFF773F2E36FE0DC0232D2E7FA22E97
:10207000891458F434FE0BC032FC09C0832D8E7EC7
:10208000A82E05C0B82CA32C03C0B82C01C0B92CB5
:10209000A4FE0FC0FE01E80DF11D8081803321F404
:1020A0009A2D997EA92E09C0A2FE06C0B394B394BE
:1020B00004C08A2D867809F0B394A3FC10C0A0FE5A
:1020C00006C0B21480F4280C922C9B180DC0B214D8
:1020D00058F4B60180E290E076D0B394F8CFB21411
:1020E00018F42B1802C0982C212CA4FE0FC0B601A6
:1020F00080E390E068D0A2FE16C0A1FC03C088E790
:1021000090E002C088E590E0B6010CC08A2D867888
:1021100051F0A1FE02C08BE201C080E2A7FC8DE27B
:10212000B60190E050D0891430F4B60180E390E01D
:102130004AD09A94F8CF8A94F301E80DF11D80817A
:10214000B60190E040D08110F6CF222009F44ECEA7
:10215000B60180E290E037D02A94F7CFF60186816D
:10216000978102C08FEF9FEF2B960FB6F894DEBFDA
:102170000FBECDBFDF91CF911F910F91FF90EF90D8
:10218000DF90CF90BF90AF909F908F907F906F9097
:102190005F904F903F902F900895FC010590615003
:1021A00070400110D8F7809590958E0F9F1F08956D
:1021B000FC016150704001900110D8F78095909516
:1021C0008E0F9F1F08950F931F93CF93DF93FB01F3
:1021D000238121FD03C08FEF9FEF2CC022FF16C08B
:1021E00046815781248135814217530744F4A081E9
:1021F000B1819D012F5F3F4F318320838C932681D6
:1022000037812F5F3F4F3783268314C08B01EC014A
:10221000FB010084F185E02D0995892BE1F6D801B9
:1022200016968D919C911797019617969C938E9375
:102230001697CE01DF91CF911F910F910895FA016A
:10224000AA27283051F1203181F1E8946F936E7FF5
:102250006E5F7F4F8F4F9F4FAF4FB1E03ED0B4E0E6
:102260003CD0670F781F891F9A1FA11D680F791F27
:102270008A1F911DA11D6A0F711D811D911DA11D38
:1022800020D009F468943F912AE0269F1124301948
:10229000305D3193DEF6CF010895462F4770405DE3
:1022A0004193B3E00FD0C9F7F6CF462F4F70405D92
:1022B0004A3318F0495D31FD4052419302D0A9F7ED
:1022C000EACFB4E0A6959795879577956795BA95E7
:1022D000C9F700976105710508959B01AC010A2EAD
:1022E00006945795479537952795BA95C9F7620F84
:0E22F000731F841F951FA01D0895F894FFCF43
:1022FE0020032C01C003E303FF0136002E002D0046
:10230E003500256900496E697469616C697A6500EA
:10231E0052756E6E696E6700500041005500530095
:10232E0045004400424C3A0057483A00414C3A00AE
:10233E0053543A0052454D3A00424C005748004122
:10234E004C0053540043616C6962726174650042C3
:10235E006C61636B3A0077686974653A00416C751D
:10236E006D3A00537465656C3A00486967683A00C7
:10237E004C6F773A004176673A0052616D70204497
:10238E006F776E0042656E2077726F6E673F004FFB
:08239E0077656E2069742E00C2
:00000001FF
